:020000040800F2
:10000000A03500203102000855120008DF11000859
:10001000511200086D0B00086B2900080000000059
:100020000000000000000000000000006D25000836
:10003000710B000800000000BF02000881260008C4
:100040004B0200084B0200084B0200082122000866
:100050004B0200084B0200084B0200084B0200084C
:100060004B0200084B0200084B0200084B0200083C
:100070004B0200084B0200084B0200084B0200082C
:100080004B0200084B0200084B0200084B0200081C
:100090004B0200084B0200084B0200084B0200080C
:1000A0004B0200084B0200084B0200084B020008FC
:1000B0004B0200084B0200084B0200084B020008EC
:1000C0004B0200084B0200084B0200084B020008DC
:1000D0004B0200087D2800084B0200084B02000874
:1000E0004B0200084B0200084B0200084B020008BC
:1000F0004B0200084B0200084B0200084B020008AC
:100100004B0200084B0200084B0200084B0200089B
:100110004B0200084B020008FD2600084B020008B5
:100120004B0200084B0200084B0200084B0200087B
:1001300000F002F800F06CF80AA090E8000C82448D
:100140008344AAF10107DA4501D100F061F8AFF26A
:10015000090EBAE80F0013F0010F18BFFB1A43F0A5
:1001600001031847DC700000FC70000010F8013B30
:100170000A4413F0030408BF10F8014B1D1108BF17
:1001800010F8015B641E05D010F8016B641E01F8C5
:10019000016BF9D1002D15D010F8014B03F00C03C1
:1001A0000C2BA1EB04040ABF10F8013BA4EB831451
:1001B000A4EB032405F1010314F8016B5B1E01F8A5
:1001C000016BF9D5914238BF10F8013BD1D370478C
:1001D0000023002400250026103A28BF78C1FBD850
:1001E000520728BF30C148BF0B607047642900F038
:1001F0001381752900F01081632900F0C6837329EB
:1002000000F0CB83002070471FB51FBD10B510BD97
:1002100000F059FC1146FFF7F7FF03F097F900F0E3
:1002200077FC03B4FFF7F2FF03BC02F0A7FB00006A
:100230000948804709480047FEE7FEE7FEE7FEE77A
:10024000FEE7FEE7FEE7FEE7FEE7FEE704480549B6
:10025000054A064B704700009D2600083101000842
:10026000A02F0020A0350020A0310020A0310020C8
:10027000EFF3108072B6704780F310887047204CFF
:10028000204D25604FF0000484F309881E4C4FF088
:10029000010525701D4C4FF08055256062B6FEE7C4
:1002A00030B41A4C4FF08055256030BC704730B4E4
:1002B000164C4FF08055256030BC704700BF72B6B9
:1002C000EFF3098028B1203880E8F00F1049096861
:1002D000086000B50F4880475DF804EB0E480F49F1
:1002E0000A7802700A480E490A680260106890E8AD
:1002F000F00F203080F309884EF0040E62B670478C
:1003000020ED00E00000FFFF6A00002004ED00E0A7
:10031000700000204D1800085F00002060000020E1
:1003200078000020704700000FB4044910B503AAFC
:10033000029800F037FB10BC5DF814FB3C00002075
:100340000FB47CB50C0009AA009001D02044401ED7
:10035000084B7B4469460190089800F0ECFA05468A
:100360001CB10020694600F0F9FA28467CBC5DF813
:1003700014FB00001106000070B504468569006892
:10038000C10601D5302600E02026C00707D070BD89
:10039000D4E9012130469047206A401C20626D1E3E
:1003A000F6D570BD70B5044685690078C00707D1E1
:1003B00070BDD4E9012120209047206A401C2062B2
:1003C0006D1EF6D570BD70B50C460546012A05D0E8
:1003D0002878800600D5EA69002302E0012305E0C1
:1003E0005B1C934202D2E05C0028F9D1A869E618B0
:1003F000C01AA861286A184428622846FFF7BCFF83
:1004000004E0D5E9012114F8010B9047B442F8D378
:100410002846FFF7C7FF70BD2DE9F04106460024CE
:1004200010687529314616A510D0AFF3008000285A
:1004300002DA404213A507E031688A0701D512A508
:1004400002E0490704D511A5012401E0AFF30080C3
:1004500000210A2206F1240709E0B0FBF2FCB0FB00
:10046000F2F302FB1C00303078541846491C002877
:10047000F3D123462A463046BDE8F04100F0FDB9ED
:10048000000000002D0000002B00000020000000F4
:100490002DE9F05F894604464FF0000ADFF874B199
:1004A000FB44C0F820A02046E1688847002874D0AB
:1004B000252806D0D4E901219047206A401C2062FB
:1004C000F1E700265F462046E16888472028054678
:1004D00007DB312D05D2781910F8200C08B106433E
:1004E000F1E7B00701D526F00406C4F81CA00027E8
:1004F000C4F818A02A2D09D0284602F038FA38B3DB
:1005000004EB8708303DC8F8185019E059F8041B6F
:10051000204604EB87029161E1688847012F054678
:1005200018D1E069002820DA26F020061DE0D8F86E
:10053000180000EB800005EB40003038C8F81800C8
:100540002046E1688847054602F011FA0028EED1FE
:10055000012F0AD02E2D08D12046E16888477F1C44
:100560000546022F46F02006C4DBA069002803DA06
:10057000404246F00106A061F00701D026F01006C7
:100580006C2D0BD0682D09D04C2D39D06A2D35D06B
:10059000742D35D07A2D33D016E038E0E1682F463F
:1005A00020468847B842054609D16C2F26D04FF423
:1005B0008060E168064320468847054604E06C2FCA
:1005C0001AD04FF4807006430DB3A5F141001928ED
:1005D00002D8203546F400664A4629462046266061
:1005E0004E46FFF703FE80B101280BD0F61D26F022
:1005F000070000F1080956E74020E4E78020D8E72B
:100600000020D6E706F104094DE7284652E7206AA4
:10061000BDE8F09F2A6C0000401ECAB210F8011F0E
:100620008A4202D00029F9D10020704730B5054632
:100630000B462A4613F8014B12F8010B08B1A042F1
:10064000F8D01CB1002802D06D1CF1E7284630BD5F
:1006500040EA0103024630B59B0710D14FF0013448
:1006600000E008C208C91D1B9D4315EAC41FF8D04D
:1006700013F0FF0102F8011B0DD01B0AF8E711F877
:10068000013B002B02F8013B05D011F8013B002B88
:1006900002F8013BF3D130BD0022CBB210F8011BB0
:1006A000994200D1421E0029F8D11046704710B57A
:1006B000431C02E010F8011B71B18107FAD14FF021
:1006C000013202C88C1A8C4314EAC211F9D0C01A44
:1006D0000A0603D0C01E10BDC01A10BD0A0401D006
:1006E000801E10BD0902FCD0401E10BD40EA01036F
:1006F00070B59B072ED14FF00136042A2AD308C8C3
:1007000010C99D1B9D43121F15EAC61517D0D8B2FC
:10071000E1B2401A50EA056110D198B2A1B2401A74
:1007200050EA05410AD123F07F4024F07F41401A6E
:1007300050EA052102D1180EA0EB146070BDA3424F
:10074000DBD018BA21BA884201D9012070BD4FF020
:10075000FF3070BD0AB9002070BD10F8013B11F8E0
:10076000014B63B1A3420AD1521E08D010F8013BDD
:1007700011F8014B1BB1A34201D1521EEDD1181B40
:1007800070BD032A40F2308010F0030C00F0158099
:1007900011F8013BBCF1020F624498BF11F801CB84
:1007A00000F8013B38BF11F8013BA2F1040298BFE9
:1007B00000F801CB38BF00F8013B11F0030300F053
:1007C0000381083AC0F0088051F8043B083A51F818
:1007D00004CBA0E80810F5E7121D5CBF51F8043BFC
:1007E00040F8043BAFF30080D20724BF11F8013B6F
:1007F00011F801CB48BF11F8012B24BF00F8013BD1
:1008000000F801CB48BF00F8012B704702F0FF034E
:1008100043EA032242EA024200F00AB910B5044654
:1008200010F0030F08BF11F0030F40F015804FF0D8
:10083000013E121FC0F20E8051F8043BA3EB0E0CD8
:100840002CEA030C1CEACE1C08BF40F8043BF0D095
:10085000A1F1040102F10402521E08DB11F8013B70
:10086000002B00F8013BF7D1114600F0DFF82046DD
:1008700010BD70477047704770472DE9F0470D462F
:1008800099469246044600F124080168880604D57A
:10089000E06921F01001216000E00120A84201DDA3
:1008A000471B00E00027A1697A1902EB0900081A2A
:1008B000A0612078C00602D42046FFF75DFD002627
:1008C00008E0D4E901211AF806009047206A401C8C
:1008D000761C20624E45F4DB2078C0060AD52046FF
:1008E000FFF74AFD06E0D4E9012130209047206A55
:1008F000401C2062381EA7F10107F4DC07E0D4E9B0
:10090000012118F805009047206A401C2062281E2B
:10091000A5F10105F3DC2046FFF744FD2078000631
:1009200002D50220BDE8F0870120FBE701694A1CDF
:1009300002610878704700B58FB0CDE90131002120
:10094000059105497944CDE9031011466846FFF742
:100950009FFD0FB000BD0000E5FFFFFF0A6802F831
:10096000010B0A607047D1E900239A4202D2531C5E
:100970000B601070704710B5436913B1AFF300807E
:1009800001E0FFF720FD012010BD127800F12401E5
:100990000A7000224A700122EDE711684FF0FF3221
:1009A000E9E70000074B70B50D467B44FFF7C3FF36
:1009B0000446284600F05CF810B14FF0FF3070BDDF
:1009C000204670BD5B22000010B5203AC0F00B80BD
:1009D000B1E81850203AA0E81850B1E81850A0E843
:1009E0001850BFF4F5AF5FEA027C24BFB1E818509D
:1009F000A0E8185044BF18C918C0BDE810405FEA0D
:100A0000827C24BF51F8043B40F8043B08BF704788
:100A1000D20728BF31F8023B48BF11F8012B28BF8D
:100A200020F8023B48BF00F8012B70474FF000024E
:100A30000429C0F0128010F0030C00F01F80CCF1EC
:100A4000040CBCF1020F18BF00F8012BA8BF20F85E
:100A5000022BA1EB0C0100F011B85FEAC17C24BFAE
:100A600000F8012B00F8012B48BF00F8012B70475C
:100A7000007B00F0800070474FF0000200B5134685
:100A800094469646203922BFA0E80C50A0E80C50AE
:100A9000B1F12001BFF4F7AF090728BFA0E80C505F
:100AA00048BF0CC05DF804EB890028BF40F8042B58
:100AB00008BF704748BF20F8022B11F0804F18BFC5
:100AC00000F8012B7047754600F028F8AE46050087
:100AD0006946534620F00700854618B020B5FFF759
:100AE000B5FBBDE820404FF000064FF000074FF087
:100AF00000084FF0000B21F00701AC46ACE8C0093C
:100B0000ACE8C009ACE8C009ACE8C0098D46704744
:100B10000446AFF300802046FFF783FB0048704790
:100B20003C2F002010B5012001F03EFA002001F01A
:100B30003BFA10BD08B50146002000900348009024
:100B40000098084400900098008808BD006C0040A0
:100B500008B500220092044A0092009A02440092D2
:100B6000009A116008BD0000006C004000BFFEE765
:100B70007047000070B50446002500F0ADF9FF2273
:100B80000021104600F080FA04E0681C85B20120C4
:100B900001F0B2FF1D2000F05AF900F0010010B979
:100BA000B5F5FA7FF1DBB5F5FA7F01DB012070BD09
:100BB00000204C4908600021082000F041FA002183
:100BC000092000F03DFA00210C2000F039FA002144
:100BD0000D2000F035FA10210A2000F031FA1A2118
:100BE0000B2000F02DFA1121042000F029FA1A211F
:100BF000052000F025FAFF21062000F021FA1F2130
:100C0000072000F01DFAB021382000F019FA3F212A
:100C1000282000F015FA3021292000F011FAF921DE
:100C2000302000F00DFAF721312000F009FA0D21F3
:100C3000C02000F005FA0021C12000F001FA3322A3
:100C4000C221802000F020FA1221C62000F0F8F91D
:100C50000C21C72000F0F4F91521C42000F0F0F9B0
:100C6000EE21CA2000F0ECF90521CB2000F0E8F9D4
:100C70002178E42000F0E4F96178E52000F0E0F963
:100C8000A178E22000F0DCF9E178E32000F0D8F967
:100C90002179E02000F0D4F96179E12000F0D0F969
:100CA0004FF48071002000F01FF84FF48071102085
:100CB00000F01AF81F2000F0A9F9C0221B218020A3
:100CC00000F0E2F904221F21802000F0DDF9E42089
:100CD00000F0BDF82178884201D1002067E70120AB
:100CE00065E700002C00002070B505460C46002684
:100CF0002946D42000F0A4F9E1B2D62000F0A0F9F2
:100D0000C4F30721D72000F09BF901E0701C86B2E4
:100D1000EA2000F09CF800F0010018B140F6FF70E6
:100D20008642F3DB70BD00002DE9F04105460F4619
:100D3000392000F08CF810B90020BDE8F081294876
:100D40000178002000F07CF926480088C0F30721D4
:100D5000012000F075F900213A2000F09DF82149AA
:100D6000086000213A2000F097F81E49096841EA1E
:100D700000201C49086000213A2000F08DF804464C
:100D800000213A2000F088F844EA0024241F0021C2
:100D90003A2000F081F8064600213A2000F07CF865
:100DA00046EA0026681EA04200D26C1E06F08000B3
:100DB00008B9002403E03946204600F053F80948FA
:100DC00001780C2000F03CF906480088C0F30721A8
:100DD0000D2000F035F940221E21802000F054F94A
:100DE0002046AAE72C00002070B504460D461121CC
:100DF000022000F025F91A21032000F021F911202A
:100E00002044C1B2062000F01BF941F61120204415
:100E1000C0F30721072000F013F9002211467A20C1
:100E200000F032F92946204600F016F908221F2169
:100E3000802000F029F91C2000F009F800F00200E1
:100E400020B108221F21A02000F01EF970BD10B5AE
:100E50000446204600F0DAF82146002000F01CF895
:100E600010BD000070B505460C4600200949086019
:100E70003A2001F007FB05E06D1E002001F002FBA7
:100E80002070641C002DF7D1002020700120014942
:100E9000086070BDB081214270B505460C46002641
:100EA00000200C49086004F01F0040EA05063046A7
:100EB00001F0E8FAFF2001F0E5FA064604F08000B0
:100EC00018B1FF2001F0DEFA064601200149086052
:100ED000304670BDB081214210B500F01BF80820EB
:100EE00001F0F8FA40F2CF214FF47A7001F01AFCC9
:100EF0000020064908600A2001F0FEFD0120044997
:100F0000C1F8A4010A2001F0F7FD10BDA48121421F
:100F10000080214200B587B00121880301F024F848
:100F200001214FF4947001F02FF84FF4C040ADF858
:100F3000040010208DF8070003208DF8060001A999
:100F40002E4800F0BFF84FF4C0412C4800F045F99E
:100F50004FF40070ADF8040001A9294800F0B2F880
:100F60004FF40071264800F038F94FF49850ADF86E
:100F7000040001A9234800F0A5F84FF49851214836
:100F800000F02BF94FF46040ADF8040018208DF804
:100F9000070003208DF8060001A91A4800F092F816
:100FA0004FF46041174800F018F90020ADF8080030
:100FB0004FF48270ADF80A000020ADF80C00ADF8D7
:100FC0000E00ADF810004FF40070ADF8120038209C
:100FD000ADF814000020ADF816000720ADF8180099
:100FE00002A9094801F0A4FA0121074801F086FA94
:100FF000FF2001F047FA07B000BD000000200140CB
:10100000001C0140000C01400038004010B50446AF
:1010100004F060000949097888420ED003221F219C
:10102000A02000F031F8C4F341121F21802000F00D
:101030002BF804F060000149087010BD2800002062
:1010400070B504460D462046FFF7E0FF2A462146CC
:10105000402000F019F870BD70B504460D46002020
:10106000084908607A2001F00DFA04E0641E28782F
:1010700001F008FA6D1C002CF8D10120014908602C
:1010800070BD0000B08121422DE9F04104460D46BB
:101090001646002700200949086005F01F0040EAB5
:1010A0000407384601F0EEF9304601F0EBF9012073
:1010B0000349C1F8B001BDE8F0810000B0812142D0
:1010C000008021422DE9F041024600250026002043
:1010D00000230024002791F803C00CF00F0591F8BD
:1010E00003C00CF0100CBCF1000F03D091F802C04B
:1010F0004CEA050591F800C0BCF1000F31D014682E
:1011000000202BE04FF0010C0CFA00F3B1F800C006
:101110000CEA03069E4220D183004FF00F0C0CFA1C
:1011200003F7BC4305FA03FC4CEA040491F803C03E
:10113000BCF1280F06D14FF0010C0CFA00FCC2F8EC
:1011400014C00AE091F803C0BCF1480F05D14FF07C
:10115000010C0CFA00FCC2F810C0401C0828D1D3C6
:101160001460B1F800C0BCF1FF0F34DD54680020FA
:101170002EE000F1080C4FF0010808FA0CF3B1F86A
:1011800000C00CEA03069E4221D183004FF00F0CF1
:101190000CFA03F7BC4305FA03FC4CEA040491F88B
:1011A00003C0BCF1280F05D100F1080C08FA0CF8B7
:1011B000C2F8148091F803C0BCF1480F07D100F1C8
:1011C000080C4FF0010808FA0CF8C2F81080401C17
:1011D0000828CED35460BDE8F0810161704700BF9C
:1011E000FEE70146CA1701EB92729210A1EB820250
:1011F00092B9642091FBF0F200FB121050B94FF449
:10120000C87091FBF0F200FB121008B90120704782
:101210000020FCE70120FAE70020F8E708B50121EB
:10122000102000F0B1FE0320ADF8000010208DF872
:10123000030003208DF8020069460448FFF742FFCF
:1012400003210248FFF7C9FF08BD0000001001405C
:1012500000BFFEE77047000070B5002100230F2299
:10126000C47804B3154C246804F4E064C4F5E06465
:10127000210AC1F10403CA40447804FA03F18478D6
:101280001440214309010E4C0678A155047804F05E
:101290001F050124AC4005786D11AD0005F1E02576
:1012A000C5F8004109E0047804F01F050124AC40B2
:1012B000044D0678761145F8264070BD0CED00E02F
:1012C00000E400E080E100E002490143024A1160CD
:1012D000704700000000FA050CED00E010B500F0CA
:1012E00013F800F0BFFB00F0E7FB00F007FC00F094
:1012F0008FFB00F061FB00F09BFC00F03FFC00F076
:1013000065FC00F002F810BD704770470648007891
:10131000012808D105480078FF2804D20348007846
:10132000401C0249087070476A0000205D000020E0
:1013300010B500241A480078012830D1FEF798FF34
:1013400004461848007820B116480078401E154918
:10135000087014480078F8B913480078E0B900F034
:10136000C9FC12481249097850F821001149086057
:101370000F4800781049097888420DD00D48006860
:10138000806B401C0B49096888630C480068401C4E
:101390000A490860FEF78BFF2046FEF76DFF10BD7F
:1013A0006A0000205D0000205E0000201011002077
:1013B00060000020780000205F0000204400002032
:1013C00010B500240B480078012811D1FEF750FF1A
:1013D00004460948007840B908480078FF2804D23C
:1013E00006480078401C054908702046FEF744FF77
:1013F00010BD00006A0000205D0000205E0000209B
:1014000010B5002413480078012821D1FEF730FFE1
:10141000044611480078C0B10F480078401E0E49BC
:1014200008700846007860B90C48007828B9204652
:10143000FEF722FF00F024FC0AE02046FEF71CFF26
:1014400006E02046FEF718FF02E02046FEF714FFF4
:1014500010BD00006A0000205E0000205D0000203A
:1014600010B50B48007890B900F044FC09480078AA
:101470000949087009480749097850F821000849C6
:1014800008600846006807490860FEF7F8FE10BDCE
:101490006A000020600000205F0000201011002082
:1014A0007800002070000020704700002DE9FE4FFA
:1014B00006460F4690461C464FF00009FEF7D8FE40
:1014C00081461F48007828B14846FEF7D5FE3C20EB
:1014D000BDE8FE8F1B4850F8240060BB012019496D
:1014E00041F824004846FEF7C7FE0023424639462D
:1014F000304600F009F98246002000900190034632
:10150000024651460290204600F00AFC054635B9D5
:101510000D48007801280CD100F0B2FB09E0FEF77D
:10152000A7FE81460020074941F824004846FEF7FF
:10153000A3FE2846CCE74846FEF79EFE2820C7E7D4
:101540005D000020101100206A0000202DE9F04FFE
:1015500085B081468A4693461C46DDE90F78129D88
:1015600000200390FEF784FE03902348007830B1FA
:101570000398FEF781FE3C2005B0BDE8F08F1F48C0
:1015800050F8240088BB01201C4941F8240003982E
:10159000FEF772FE2A464146384600F0D1FC2B4643
:1015A0005A465146484600F0AFF804901198CDE9EC
:1015B000008002953A4620460E9B049900F0B0FB4D
:1015C000064636B90E48007801280CD100F058FBC9
:1015D00009E0FEF74DFE03900020084941F8240081
:1015E0000398FEF749FE3046C6E7FFE70398FEF78B
:1015F00043FE2820C0E700005D00002010110020FD
:101600006A000020704770472DE9F04106460F46FA
:1016100014464FF000081548007818B112202070C9
:10162000BDE8F081FEF724FE8046FF2E03D110486E
:10163000006890F832600F4850F826502DB94046A7
:10164000FEF71AFE43202070EAE7012D05D140463F
:10165000FEF712FE43202070E2E7EF644046FEF7FB
:101660000BFE0020207000BFDAE700005D000020C4
:101670007000002010110020704700002DE9F04795
:1016800007460D464FF0000A002028606860FEF70C
:10169000EFFD8246FF2F03D11948006890F83270A1
:1016A000184850F827402CB95046FEF7E5FD432076
:1016B000BDE8F087012C04D15046FEF7DDFD432044
:1016C000F6E7207C00F0010020B95046FEF7D4FD7B
:1016D0004520EDE70026D4F80C90D4F80880504659
:1016E000FEF7CAFD00E0761C58F8041B0029FAD06A
:1016F000B0002860A9EB0600800068600020D7E7F2
:10170000700000201011002070B5044610464FF004
:1017100080750560051F28462C606FF00106051FC7
:1017200028462E604FF01236051F28462E604FF0D7
:101730000336051F28462E604FF00236051F284647
:101740002E607610051F28462E60051F284629604A
:101750004FF01136051F28462E604FF01036051F3A
:1017600028462E604FF00936051F28462E604FF0A0
:101770000836051F28462E604FF00736051F2846FD
:101780002E604FF00636051F28462E604FF00536B6
:10179000051F28462E604FF00436051F28462E6090
:1017A00070BD00002DE9F04105464FF00008FEF73E
:1017B0005FFD8046FF2D05D12048006890F832502B
:1017C000012608E01D48006890F83200A84201D1C7
:1017D000012600E000261A4850F825402CB9404662
:1017E000FEF74AFD4820BDE8F081012C04D14046B7
:1017F000FEF742FD4320F6E794F834701148C05DCF
:1018000094F8351088430F49C8550846C05D30B973
:1018100094F836100C48007888430B49087094F807
:10182000300040F0080084F830004046FEF724FD08
:10183000012E01D100F024FA0020D4E7700000202E
:10184000101100206200002061000020704700009D
:1018500070B5054600261748007800B170BD1648DF
:10186000007800B1FAE71DB3FEF702FD0646134803
:10187000006890F834401248005D1049096891F8FA
:10188000351088430E4908550846005D40B90B489D
:10189000006890F836100B480078884309490870B2
:1018A00006480068C5623046FEF7E6FC00F0E8F93D
:1018B00000BFD3E75D0000205E0000207000002024
:1018C000620000206100002070B5002600F072F870
:1018D000FEF7CEFC064631480068401C2F490860E0
:1018E0003046FEF7C9FC2E480078012853D12D4818
:1018F000007820B1012804D0022809D103E0012595
:101900000BE0002509E0012501202649087004E0CC
:10191000012500202349087000BF00BF05B970BD34
:101920002148046833E0FEF7A3FC0646E06A50B3A2
:10193000E06A401EE062E06A28BB94F8300000F0E4
:10194000370040B114F8300F00F0C80020700120BB
:101950006070303C02E0002084F8310094F83000E0
:1019600000F0080078B93434A078104909780843A9
:101970000E49087020780E49085C6178084314F815
:1019800034190B4A505464693046FEF775FC94F8DC
:1019900032003F28C7D100BFC1E700008800002007
:1019A0006A000020800000207C00002061000020F0
:1019B00062000020704700002DE9F04150211148DD
:1019C00000F02CF900250DE0681C86B20D4800EBF4
:1019D000051400EB06170020207067600AA0E06085
:1019E000681C85B2042DEFD3064800EB05140020D7
:1019F0002070606004A0E060024804490860BDE80F
:101A0000F0810000C00C00203F0000004C000020CE
:101A100070B5C821114800F001F900230FE0581CEF
:101A200085B203EB83000D4901EB800405EB8500D3
:101A300001EB8006002020706660581C83B2092BE1
:101A4000EDD303EB8300054901EB800400202070F7
:101A5000606008460249086070BD0000F80B002075
:101A60004800002000200A4908600A4908700A4915
:101A700008700A4908700A4908700A4908600A494A
:101A800008600A4908600A4908600A4908707047F6
:101A9000880000205D0000205E0000206B00002018
:101AA0006A000020440000206C0000205800002044
:101AB000540000205C00002000210A4A1170002020
:101AC00004E00021084A1154411CC8B20828F8D388
:101AD0000021064A1170064A1170064A1160064A32
:101AE0001160704761000020620000205F0000204C
:101AF00060000020780000207000002070B54FF4D6
:101B00007C71194800F08AF84FF48071174800F092
:101B100085F8002413E0601CC5B2C4EBC40000EBE0
:101B20004000114901EB8003C5EBC50000EB40000C
:101B300001EB80065E610EA0D864601CC4B20B2C61
:101B4000E9D3C4EBC40000EB4000074901EB80037C
:101B50000020586106A0D8640020064908600248A9
:101B60000549086070BD000010120020101100200F
:101B70003F0000007C0000207400002000B587B00A
:101B80000320002180220A4BCDE90132CDE9031068
:101B90004FF6FF703F23074A00900748FFF7D6FC37
:101BA00006AA06A13F20FFF72FFD07B000BD0000E9
:101BB000100F00200C110020551E000875432F4FF8
:101BC000532D49492049646C6500000000B587B079
:101BD0000320002180220A4BCDE90132CDE9031018
:101BE0004FF6FE703E23074A00900748FFF7AEFC11
:101BF00006AA06A13E20FFF707FD07B000BD0000C2
:101C0000100D00200C0F00207D1E000875432F4F83
:101C1000532D4949205374617400000004E00022F0
:101C200000F8012B4A1E91B20029F8D1704700003C
:101C30002DE9F04178211048FFF7F0FF00240DE076
:101C4000601C86B204EB44000B4901EBC00506EBB7
:101C5000460001EBC0072F60601C84B2042CEFD358
:101C600004EB4400044901EBC0050020286008464D
:101C700002490860BDE8F0810016002084000020C1
:101C800010B50024FEF7F4FA044613480078F8B9BA
:101C900012480078E0B900F02DF811481149097890
:101CA00050F82100104908600E4800780F49097863
:101CB00088420DD00C480068806B401C0A490968B6
:101CC00088630B480068401C09490860FEF7E8FA81
:101CD0002046FEF7D1FA10BD5D0000205E00002016
:101CE0001011002060000020780000205F0000201C
:101CF000440000200649074A1278885C0649095CBE
:101D0000034A515C01EBC001044A117070470000A6
:101D1000245A0008610000206200002060000020BA
:101D20002DE9F84F05460F4690469946DDE90AAB86
:101D300000200090FEF79CFA00903F480468002CB9
:101D400074D0183454F8040C3B4908600098FEF72E
:101D500093FA44F8187CA5760020207660766061BE
:101D600044F814BC44F80CAC44F8108C0C9824F8DB
:101D7000080C24F8069C0020E077E810207705F096
:101D80000700E076217F01208840A077E17E0120D6
:101D90008840607700206060E060A0602062A06200
:101DA0006062E062206325A06063183C002606E0C4
:101DB000002104F1500040F82610701CC6B2002E1D
:101DC000F6D02046FFF770FB2046FFF71BFCFEF71E
:101DD0004FFA00901A4840F825401A4800686061A0
:101DE0000020A0611748006810B11648006884619F
:101DF000144804603434A078134909780843124920
:101E0000087020781149085C6178084314F8341987
:101E10000E4A50540E480078401C0D490870009836
:101E2000FEF72AFA0020BDE8F88FFFE70098FEF7DA
:101E300023FA4220F7E70000740000203F00000072
:101E4000101100207C0000206100002062000020B2
:101E50006B000020002400BF00BFFEF709FA044613
:101E600005480068401C044908602046FEF704FA53
:101E7000FFF7C9FBF1E700006C000020002400BF61
:101E800002E02820FFF7E4FC194800780028F8D089
:101E9000184800686421B0FBF1F016490860084654
:101EA000006828B9002014490870FF20FFF77AFC69
:101EB00000BFFEF7DDF904461048006810490860CD
:101EC00000200E4908602046FEF7D6F90C4800684D
:101ED00008490968B0FBF1F0C0F1640006490870D8
:101EE000FFF7CAFB00F00EF81420FFF7B1FCE0E7A3
:101EF0005C00002054000020500000206C000020F6
:101F0000580000207CB5002514E069462846FFF7FC
:101F1000B5FB064666B9094850F8254044B1012C86
:101F200006D0D4E9020100EB810060640198A0644E
:101F3000681CC5B23F2DE8D97CBD000010110020FF
:101F400002F0010343B102F002032BB102E0491E8B
:101F5000002308C00029FAD1704700000149086237
:101F60007047000000000E4229B1064AD2690243C0
:101F7000044BDA6104E0034AD2698243014BDA611F
:101F8000704700000010024029B1064A92690243DE
:101F9000044B9A6104E0034A92698243014B9A61BF
:101FA00070470000001002400149086070470000BF
:101FB0004004424210B501460022002300204A118D
:101FC000012A02D1094C236806E0022A02D1074CFB
:101FD000236A01E0054C636A01F01F02012494406A
:101FE0001C400CB1012000E0002010BD0010024098
:101FF00000210B4A11700A4A203A82F82010012869
:1020000002D0042808D103E00121054A117004E040
:102010000521034A117000E000BF00BF70470000B7
:102020002010024001490860704700003C04424211
:102030000249096A0143014A1162704700100240D7
:10204000024909888143014A1180704704280040F1
:102050000348008840F010000149088070470000E4
:1020600004280040034800884FF6EF7108400149FA
:10207000088070470428004070B500260024002521
:102080003B4806883604001D008806443948B6FBE4
:10209000F0F439480088A0423CD037490C8040F227
:1020A000B27510E02846FFF79CF840B1B4F5B77F51
:1020B00002D3A4F5B77404E0681C85B206E0A4F26C
:1020C0006D14681C85B2B4F5B67FEBD800BF2B4801
:1020D0008580002516E029498888FFF782F830B10D
:1020E000012D04D11D2C01D31D3C09E00CE0244836
:1020F000405DA04203D82248405D241A00E003E07E
:10210000681C85B21C2CE6D200BF681C1B49887174
:10211000601CC8711748B6FBF0F100FB11644FF466
:102120006160B4FBF0F0154908704FF46160B4FBD6
:10213000F0F100FB11403C21B0FBF1F00F49487079
:102140004FF46160B4FBF0F100FB11403C21B0FBA7
:10215000F1F201FB1200094988700B46DA7999798E
:10216000988800F021F805490872002070BD000031
:10217000182800408051010034000020240B00206A
:10218000185A000801460020064A12880A40D0B2B8
:10219000044A121F12880A4012B108B1012000E05F
:1021A0000020704704280040F0B503460C46154651
:1021B000642093FBF0F0C6B2642093FBF0F700FBC1
:1021C0001730C1B2132E02DD01F16400C1B208461E
:1021D000CF1701EB977701EBA707BAB2072092FB65
:1021E000F0F700FB172082B25719601EDFF82CC0F1
:1021F0001CF80000384482B2CF1701EB9777BF106C
:10220000A1EB87071FB9032C01DA501E82B2072009
:1022100092FBF0F700FB1720C0B2F0BD0C5A00088B
:1022200010B50120FFF7AEFF08B1FFF725FF022030
:10223000FFF7A8FF10B10220FFF702FF0520FFF70C
:10224000FFFE00F003F910BD29B1064A12880243CF
:10225000044B1A8004E0034A12888243014B1A801F
:1022600070470000002800401CB500240420FEF741
:1022700061FC45F25001884247D001214FF0C05027
:10228000FFF772FE0120FFF769FEFEF74BFC01200D
:10229000FFF7AEFE04E0601CC4B20A2000F02CFC84
:1022A0004120FFF787FE0028F5D0FA2C01DB012042
:1022B0001CBD4FF48070FFF7BBFE0120FFF7B2FE9C
:1022C00000F0C4F800F0CCF801210846FFF7BCFF8D
:1022D00000F0BCF8FFF7BCFE47F6FF7000F0A6F870
:1022E00000F0B4F83720332110230D22CDE900107F
:1022F00001214FF4FC6000F027F8FFF7B3FE45F230
:1023000050010420FEF724FC07E000F0A9F80121A9
:102310000846FFF799FF00F099F800F004F8FFF77E
:10232000ABFE0020C4E708B503208DF800000020B4
:102330008DF801008DF8020001208DF80300684639
:10234000FEF78AFF08BD00002DE9F05F06460F4644
:1023500090469946DDE90AAB002440F2B27086420D
:1023600003DB40F63300864202DD0120BDE8F09F2A
:1023700040F2B2750AE02846FEF733FF10B120485C
:10238000044401E01F480444681C85B2B542F2DBF6
:10239000781EC7B2002510E01B48405D40F2A32123
:1023A000484304EBC0143046FEF71BFF18B1012D63
:1023B00001D116480444681C85B2BD42ECDBA8F18B
:1023C000010040F2A321484304EBC014C9EB4910BB
:1023D000C0EB092004EB0014CAEB0A1004EB8004E4
:1023E0005C4401214FF0C050FFF7BEFD0120FFF714
:1023F000B5FD204600F00CF800F028F80020B5E705
:102400000085E2018033E101185A00088051010083
:1024100000B50246FFF71CFE100C03490880091D99
:102420000A80FFF71FFE00BD1828004000B50246D5
:10243000FFF70EFEC2F3034003490880091D0A801E
:10244000FFF710FE00BD00000828004000BF034851
:10245000008800F020000028F9D0704704280040D0
:10246000074800884FF6F77108400549088000BF0B
:102470000348008800F008000028F9D070470000E9
:102480000428004070B5054605E0601CC4B2C82CA5
:1024900001DB002070BD02210D4800F03BF8002850
:1024A000F3D029460A4800F041F8002405E0601CFA
:1024B000C4B2C82C01DB0020ECE70121044800F085
:1024C00029F80028F3D0024800F02DF8C0B2E1E767
:1024D0000038004010B50446074800884FF6C77121
:1024E00008400549088008460088204308800121EB
:1024F000014800F003F810BD0038004021B1028807
:1025000042F04002028004E002884FF6BF731A4096
:10251000028070470246002013890B400BB1012056
:1025200000E000207047014688897047818170472C
:1025300010B50022028802F441520B884C882343D4
:102540008C882343CC8823430C8923434C89234321
:102550008C892343CC8923431A430280838B4FF217
:10256000FF74234083830B8A038210BD704710B52C
:1025700000F002F810BD00000CB5002001900090A2
:102580003348006840F480303149086000BF30486B
:10259000006800F4003000900198401C0190009801
:1025A00018B90198B0F5A06FF1D12948006800F47E
:1025B000003010B10120009001E000200090009850
:1025C000012843D12348006840F0100021490860E9
:1025D0000846006820F0030008600846006840F0E4
:1025E000020008601A484068194948600846406877
:1025F00048600846406840F480604860084640688B
:1026000020F47C1048600846406840F4E8104860B8
:102610000846006840F08070086000BF0C48006801
:1026200000F000700028F9D00948406820F003004D
:10263000074948600846406840F00200486000BF13
:102640000348406800F00C000828F9D10CBD0000D8
:102650000010024000200240042808D14FF0E02181
:10266000096941F004014FF0E022116107E04FF0E9
:10267000E021096921F004014FF0E0221161704767
:1026800010B505480078012805D1FEF73FFEFFF799
:102690001BF9FEF74DFE10BD6A00002010B513486F
:1026A000006840F001001149086008464068104980
:1026B00008400E494860084600680E4908400B492A
:1026C00008600846006820F48020086008464068DA
:1026D00020F4FE0048604FF41F008860FFF747FFBA
:1026E0004FF000600449086010BD00000010024077
:1026F0000000FFF8FFFFF6FE08ED00E010B5012135
:10270000064800F04EF820B105480068401C044916
:1027100008600121014800F035F810BD00100040AC
:10272000300000207FB505460C4601211020FFF740
:102730001BFCADF80850ADF804400020ADF80A00CD
:10274000ADF8060001A90E4800F046F8012241212B
:102750000B4800F037F80121094800F016F8362040
:102760008DF8000001208DF8010002208DF8020094
:1027700001208DF803006846FEF76EFD7FBD000066
:1027800000100040CA430282704721B1028842F023
:102790000102028004E002884FF6FE731A400280B4
:1027A000704730B50246002000230024158A05EA50
:1027B0000103958905EA010413B10CB1012000E081
:1027C000002030BD1AB183890B43838102E08389E5
:1027D0008B43838170470000002202881D4B984282
:1027E0000ED01D4B98420BD0B0F1804F08D01B4B40
:1027F000984205D01A4B984202D01A4B984204D105
:102800004FF68F731A404B881A43174B984207D0E4
:10281000164B984204D04FF6FF431A40CB881A4318
:1028200002808B8883850B8803850A4B98420BD0E6
:10283000094B984208D00E4B984205D00D4B984258
:1028400002D00D4B984201D10B7A0386012383827B
:1028500070470000002C014000340140000400409B
:1028600000080040000C0040001000400014004030
:1028700000400140004401400048014010B5FEF70F
:1028800045FD40F225511E4800F040F810B31C48A9
:1028900000F066F8C4B21B48008800F40040C8B9D4
:1028A0001848008800F4804060B10A2C03D0002052
:1028B0001449088020E01348008840F40040114982
:1028C000088019E00D2C06D10E48008840F48040A5
:1028D0000C49088010E00B480088C0F30D000A493D
:1028E0000C5408480088401C0649088008460088A7
:1028F000C72801DD00200880FEF71AFD10BD00008A
:1029000000380140400000202E0B002070B5024628
:10291000002400230025002040F66A16B14200D1B1
:1029200000BFC1F3421501F01F03012606FA03F3AD
:10293000012D02D19689334006E0022D02D1168A7C
:10294000334001E0968A33400C12012606FA04F463
:102950001688344013B10CB1012000E0002070BD96
:1029600001468888C0F30800704700BFFEE7303892
:102970000A2801D20120704700207047014600BF9D
:10298000704730B5044613E010680578206805707C
:102990001068401C10602068401C20601888401E91
:1029A0001880A088401EA0808D4201D1022030BD39
:1029B000A088002802DD18880028E5DC188808B9FE
:1029C0000020F4E70BE0106805781888401E188096
:1029D0001068401C10608D4201D10320E7E7188881
:1029E0000028F0DC0120E2E7016082807047F0B54A
:1029F0000B46144619461E19751E0BE04E780F78CB
:102A000006EB0726B2B28618B0B2904201DA461C35
:102A1000B0B2891CA942F1D3A9420AD10E7800278D
:102A200007EB0626B2B28618B0B2904201DA461C15
:102A3000B0B2F0BD014800687047000030000020CF
:102A4000014691F82000062821D11248007800F0B4
:102A50000100E0B1088A104A1268528A90420CDDE7
:102A6000088A0D4A1268528A801A08820A4A4868FF
:102A70001268528A1044486005E00A8A4868104487
:102A8000486000200882012081F820007047002063
:102A9000FCE70000AC000020B000002010B56FF093
:102AA0000400FFF7D9FD104800681049B0FBF1F0B1
:102AB0000F4908700C4800680C49B0FBF1F441F272
:102AC0008830444305200B4908804FF0E02000691E
:102AD00040F002004FF0E0210861084644610069BF
:102AE00040F00100086110BD1400002000127A00BF
:102AF000360000203800002070B504460F480078EA
:102B0000A0B10F48007888B90E480088844206DBDF
:102B10000C48008894FBF0F5284600F01DF80948A1
:102B2000008894FBF0F100FB114084B24FF47A71FD
:102B300004FB01F000F016F870BD00006A000020F0
:102B40005D0000203800002010B5FEF739FC10BDF4
:102B500010B5FEF755FC10BD10B504462046FEF733
:102B600077FE10BD2DE9F047074600264FF0E02024
:102B7000D0F814901148007807FB00F800BFFFF769
:102B8000E3FF4FF0E020856911E04FF0E020846919
:102B9000AC420CD0AC4202D2281B064403E0A9EBA5
:102BA0000400284406442546464500D300E0ECE7EF
:102BB00000BFFFF7CDFFBDE8F08700003600002022
:102BC00070B504460D46208D10B1612814D103E084
:102BD00000BF6120208500BF20212846FDF71CFD95
:102BE000461C3246074904F1280000F06FFD08B981
:102BF000002070BD00BF00BF00BF00202085022064
:102C0000F7E70000252C000800BF054A128802F0F3
:102C10004002002AF9D0C2B2014B1B1D1A80704736
:102C20000038014070B504462546284600F00CFCEB
:102C30000646334604A240F6CA7104480068FDF710
:102C40007FFB80B270BD000025357500A00000201C
:102C500070B504462546B5F8AC00064931F8103089
:102C600005A240F6CA7106480068FDF769FB80B20C
:102C700070BD00000C2D00202535750A00000000F5
:102C8000A000002070B505462C469C2000590D4937
:102C90000968498A884205DD0A480068408AC4F804
:102CA000A00003E09C200059C4F8A0009834064816
:102CB000A26821680068FDF764FD2089983C80B215
:102CC00070BD0000B0000020A00000202DE9F04FF2
:102CD0008BB005460A950A9DB5F8AC0000EB800064
:102CE000234901EBC004E08800F038FB0646608809
:102CF00000F034FBC7B2608800F030FB4FEA2028B8
:102D0000208800F02BFB00F0FF09208800F026FB54
:102D10004FEA202AA08800F021FB8346607E00F065
:102D2000100008B1212200E02022208A08B12A23C5
:102D300000E02023A07EE17ECDE90832CDE9061037
:102D4000607E00F00F000B4951F820005B460A4AF4
:102D500040F6CA71CDE900A9CDE90287CDE904604A
:102D600006480068FDF7ECFA80B20BB0BDE8F08FC2
:102D70007C260020EC000020B8710008A000002094
:102D800010B50446FFF778F92D202071E07120205E
:102D9000A0723A2060730020207410BD10B5044664
:102DA000204600F009F894F89600012802D1204648
:102DB00000F092F910BD000070B586B00446A088FE
:102DC00048B1B0F5827F0BD0B0F5837F26D0B0F547
:102DD000A57F7BD129E100BF4FF48270A08000BFA6
:102DE0002021201D00F0E2FC10B9002006B070BDCB
:102DF00000BF04229B4904F15000FDF777FC40B16D
:102E000000BF10209849087000BF0020A08001205A
:102E1000ECE700BF4FF48370A08000BF2021201D8D
:102E200000F0C4FC08B90020E0E700BF94F85000AF
:102E30002F2808D000BF10208B49087000BF002049
:102E4000A0800120D2E75120005D202803D051202E
:102E5000005D3F287DD15120005D3F2853D1562091
:102E6000005D31284FD18148006808B9012000E099
:102E700000207E4908607EA17F48FDF7D7FB05460C
:102E8000002D22D07DA12846FDF7D0FB05467748CE
:102E90000068E0B106227BA1E81DFDF7BFFC02221D
:102EA0007AA105F11800FDF7B9FC79A12846FDF7D4
:102EB000BDFB054678480068FDF7F9FB064632463B
:102EC000754801682846FDF7A9FC77E0C5E00622B1
:102ED00072A1E81DFDF7A2FC022272A105F1180003
:102EE000FDF79CFC6AA12846FDF7A0FB05466E484D
:102EF0000068FDF7DCFB064632466B480168284651
:102F0000FDF78CFC5AE05120005D3F2856D1562039
:102F1000005D322852D15548001D006808B90120D3
:102F200000E000205149091D086060A15248FDF7EA
:102F30007DFB0546002D41D050A12846FDF776FBCC
:102F400005464A48001D0068E8B106224DA1E81D6B
:102F500000E054E0FDF762FC02224CA105F11800EC
:102F6000FDF75CFC4AA12846FDF760FB05464A4890
:102F70000068FDF79CFB0646324647480168284634
:102F8000FDF74CFC1AE006224AA1E81DFDF746FCBD
:102F9000022244A105F11800FDF740FC3CA128469F
:102FA000FDF744FB054645480068FDF780FB0646F3
:102FB0003246424801682846FDF730FC40A12E48C1
:102FC000FDF734FB054625B1281F042201A9FDF7B2
:102FD00025FC3CA12846FDF729FB054645B101A883
:102FE000FFF7CEFE102201A905F12100FDF716FC26
:102FF0001422374904F18200FDF710FC0CE0201D7B
:1030000000F05DFB401E04F1500100220A5414221E
:1030100004F18200FDF702FC012084F896001BE019
:1030200000BF4FF4A570A08000BF0A21201D00F052
:10303000BDFB08B90020D9E600BF0822254904F1EC
:103040005000FDF753FB38B9201D00F038FB801EFF
:1030500004F1500100220A54E2E700BF0020A080E2
:103060000220C3E69B6E0008AC00002080012242D3
:103070004431D7B4CCAC00001D010020636F6C6FED
:10308000723A23003542354235420000C3F0000059
:10309000687474703A000000D80000204646303052
:1030A00030300000C1C10000D00000204432D7B44D
:1030B000CCAC00003030464630300000D400002058
:1030C000A1E60000525443CAB1BCE43A000000003B
:1030D000E06E0008F66E000870B50446B4F84C00C7
:1030E000E6283AD005DC48B1E1281DD0E32868D1B4
:1030F00027E0EB284ED0EE2863D157E004F1980189
:1031000004F1820000F0BAF910BB04F198013048D4
:1031100000F0B4F92E4904F18200FDF799FA00BFDE
:10312000E120A4F84C0000BF2A49204600F014FC1E
:1031300008B9002070BD00BF00BFE320A4F84C0018
:1031400000BF204600F0D8FB08B90020F2E734E0C9
:1031500000BFE620A4F84C0000BF1F49204600F045
:10316000FBFB08B90020E5E700BF2E2104F1820037
:10317000FDF752FA0546A5B1062218492846FDF783
:10318000B5FA70B90020A4F84E0000BFEB20A4F8F7
:103190004C0000BF204600F025F808B90020C9E720
:1031A0000BE000BFEE20A4F84C0000BF204600F06A
:1031B000A3FB08B90020BDE700BF10200849087034
:1031C00000BF00BF0020A4F84C000220B2E70000BE
:1031D000EC6E0008536F0008FF6E0008A470000832
:1031E000AC0000202DE9F0410446B4F84E0030B1A7
:1031F00090282BD0922836D0B1287DD18CE09FE04A
:10320000D4F898000078252846D1D4F89800407862
:10321000212841D1D4F89800C01CC4F8A4009C20F7
:103220000059C01EC4F8A800D4F8A40010F8010C7E
:103230003A2813D1D4F8A410481C04F1980100F0E6
:103240001DF900BF9020A4F84E0000BF204600F0FA
:1032500053FB10B90020BDE8F08112E000BF9220BE
:10326000A4F84E0000BFD4F8A40000F0CFF8074641
:10327000D4F8A46031462046B84708B90020EAE7F0
:1032800000BF204600F001FA9834E0682060216910
:10329000983C9C20015153E09C2000592E4909681C
:1032A000498A884205DD2C480068408AC4F8A0009D
:1032B00003E09C200059C4F8A000D4F898000078DE
:1032C000252807D1D4F89810481C2521FDF7A4F92A
:1032D000054605E02521D4F89800FDF79DF905463F
:1032E000ADB1D4F89800A84211D054F8980F281A1C
:1032F000A060A068983C00E028E017490968498A66
:10330000884204DB14480068408AC4F8A00000BF6B
:10331000B120A4F84E0000BF204600F017FC08B909
:10332000002098E700BF54F8980FA168084444F8BB
:1033300098099C200059D4F8A010411A9C200151F2
:103340009C20005900283FF75BAF00BF00BF002062
:10335000A4F84E0002207EE7B000002001460802DB
:1033600040EA212080B2704710B52648006800F17D
:103370001C042548007800F01000002840D12248A5
:10338000007800F0200000283AD11F48007800F0B3
:103390008000002834D11C48007800F04000B0B113
:1033A000312204F15001201D00F0D2F9312204F144
:1033B000500104F1280000F0CBF90020A4F84C00E3
:1033C00084F8960020702046FFF7E8FC18E0A4B1CE
:1033D0000D48007800F0080058B12078401C20709B
:1033E0002078142803DB20200749087001E0002022
:1033F00020702046FFF7D2FC02E02020024908702E
:1034000010BD0000B0000020AC00002070B50546E3
:103410000B4C0FE021680868FDF749F90646216862
:10342000324608682946FDF761F910B920684068FE
:1034300070BD241D20680028ECD10248F8E7000088
:10344000DC000020AD36000870B506460025094CAA
:103450000BE03046616800F037F818B9064830F8DC
:10346000150070BD681C85B22468002CF1D10020C5
:10347000F7E70000706E0008282F00202DE9F041CA
:1034800007460D4600260E4C15E03846616800F0F0
:103490001BF868B9A0682860E0686860094830F8DF
:1034A0001600401C074921F816000120BDE8F081F4
:1034B000701C86B22468002CE7D10020F6E70000DB
:1034C000706E0008282F002010B502460B46002120
:1034D00000BF585C28B1505C0D2802D0505C0A280F
:1034E00001D1002010BD505C5C5CA04201D00120E5
:1034F000F8E7481CC1B2ECE70DE00020064908607F
:103500005020FFF7F9FA01200449C1F880014FF477
:103510006670FFF7F1FAF0E78001224200002242D4
:103520000EE00020074908604FF49670FFF7E4FAB8
:1035300001200549C1F884014FF49670FFF7DCFAC9
:10354000EFE70000840122420000224208B5FFF7A5
:10355000A5FA4FF4A060FDF7B7FEFFF79FFAFDF75D
:103560005DFEFEF781FE00BF00F038FB0028FBD1B6
:1035700001F046F900BF4AF6C000ADF800004FF474
:10358000DE40ADF8020000BF00BFBDF800002049DA
:103590000880BDF80200488000BF00BF4AF6C000A6
:1035A000ADF800004FF48070ADF8020000BF00BF1E
:1035B000BDF8000017490880BDF80200488000BF30
:1035C00000BF4FF6FF70ADF80000FF20ADF802001D
:1035D00000BF00BFBDF800000F490880BDF8020021
:1035E000488000BF4BF2040001F052F94FF4A040B4
:1035F00001F04EF900F034FCFDF770FE0A23074A93
:1036000000210748FDF752FFFDF72AFF002008BD03
:103610008C00002090000020940000202008002052
:10362000893B000870B504460D46208D10B1C328B3
:103630001CD107E00020A4F8AC0012E000BFC320BA
:10364000208500BF22460C4904F1280000F03EF816
:1036500008B9002070BD00BFB4F8AC00401CA4F84D
:10366000AC00B4F8AC001628E8D300BF00BF0020BF
:1036700020850220EEE70000512C000804E001F054
:1036800037F90120FFF738FAF9E770B5044654F826
:10369000A40F0A21FCF7C0FF451C2188691A89B2D2
:1036A0006068401A606044F8A45970BD0246108DED
:1036B00000B900BF00BF00201085022070470146FE
:1036C0008A8B088B101A80B2704700002DE9F041F8
:1036D00004460D461646608810B1EE282FD11BE037
:1036E0002DB900BF002060800120BDE8F081304688
:1036F000A8472082144800686060002084F82000F9
:1037000000BF1248007800F0040008B13046A84716
:1037100000BFEE20608000BF2046FFF791F907460A
:10372000204600F0C1F807400FB90020DDE700BFD8
:10373000208A0028E5DC002084F8200000BF00BFBC
:10374000002060800220D0E7A0000020AC00002014
:1037500070B504460E461546002084F820006082AD
:10376000E660E561AAB2314604F11400FFF73CF9C6
:1037700000202080608070BD0146488A002801DD5D
:103780000120704791F82000022804D1032081F81D
:1037900020000020F5E70448007800F0020008B19E
:1037A0000120EEE70020ECE7AC00002070B50446F5
:1037B0000D46608820B1A0F21B10002836D10EE023
:1037C000A08B82B204F11400E168FFF70DF900BF8D
:1037D000608AA0B900BF40F21B10608000BF204685
:1037E000FFF7CAFF08B9002070BD00BF022084F8AF
:1037F000200011480068A06010480088608204F131
:10380000120304F108022946981CFFF7BAF800F0E9
:1038100002000028DCD02046FFF751FF28B9002025
:1038200084F8200000BF6080DEE700BF00BF0020FA
:1038300060800220D8E70000A0000020A80000203F
:103840002DE9F04104460E461546608810B1CF2898
:1038500024D110E02DB900BF002060800120BDE818
:10386000F08166602582002084F820000FE000BF10
:10387000CF20608000BF2046FFF7E2F807462046D1
:1038800000F012F807400FB90020E8E700BF208AD7
:103890000028ECDC002084F8200000BF00BF0020DE
:1038A00060800220DBE7000010B5044694F8200099
:1038B000062804D10E48007800F00400A8B1208A40
:1038C0000C490968498A884206DD0A4A1268518A09
:1038D000606802F059F803E0218A606802F054F849
:1038E000062084F82000012010BD0020FCE7000025
:1038F000AC000020B000002010B50446208D10B1AF
:10390000642821D104E000BF00BF6420208500BFEF
:103910002246104904F12800FFF7D8FE08B900201C
:1039200010BD00BF9C200059D4F8A010411A9C2063
:10393000015154F8980FA168084444F898099C2054
:1039400000590028E0DC00BF00BF002020850220D5
:10395000E6E70000852C00082DE9F04104460E46FC
:10396000208DCB2865D007DC78B1C22811D0C628BD
:1039700029D0C9287ED144E0CD2872D0CF287AD072
:10398000D12879D0D328F5D1B1E000BFC22020855D
:1039900000BF3046FCF78BFE07463A46314604F13D
:1039A0002800FFF74DFF10B90020BDE8F08100BFEF
:1039B0002E2104F18200FCF76FFE05468DB900BF91
:1039C000C620208500BF5448FCF771FE07463A46E2
:1039D000514904F12800FFF733FF08B90020E4E75C
:1039E00093E0052229464D48FCF780FE28B10622C7
:1039F00029464B48FCF77AFE88B900BFC9202085CC
:103A000000BF4848FCF753FE07463A46454904F1D3
:103A10002800FFF715FF08B90020C6E775E004226B
:103A200029464148FCF762FE88B900BFCB202085BB
:103A300000BF3E48FCF73BFE07463A463B4904F1CF
:103A40002800FFF7FDFE08B90020AEE75DE0042284
:103A500029463748FCF74AFEA8B900BFCD2020858B
:103A600000BF3448FCF723FE07463A46314904F1CB
:103A7000280002E04AE010E027E0FFF7E1FE08B985
:103A8000002092E741E0042229462B48FCF72EFE55
:103A900088B900BFCF20208500BF2848FCF707FE6B
:103AA00007463A46254904F12800FFF7C9FE08B940
:103AB00000207AE729E0042229462148FCF716FE77
:103AC00088B900BFD120208500BF1E48FCF7EFFD5C
:103AD00007463A461B4904F12800FFF7B1FE08B932
:103AE000002062E711E000BFD320208500BF164808
:103AF000FCF7DDFD07463A46134904F12800FFF7BD
:103B00009FFE08B9002050E700BF00BF00BF0020A3
:103B10002085022049E70000737000089E700008AD
:103B2000A4700008CB6F0008B0700008E76F0008B1
:103B3000B57000081E700008BA7000083A700008DE
:103B4000BF70000856700008AE6F000810B504463C
:103B5000208D10B1712811D103E000BF71202085A4
:103B600000BF04F12800D4F8A020D4F89810FFF783
:103B700067FE08B9002010BD00BF00BF00BF0020D5
:103B800020850220F7E7000070B50446002500BF3D
:103B9000FCF76EFB054607230B4A00210B48FDF797
:103BA00085FC06230A4A00210A48FDF77FFC06230C
:103BB000074A00210848FDF779FC0A20FDF7F2FDCD
:103BC0002846FCF759FB70BD200A0020F934000894
:103BD000200B0020213500087D36000870B5002537
:103BE0000A48FCF7C7FF0546002405E00748005DCA
:103BF00007490855601CC4B2062CF7DB40F2764139
:103C00001420FDF771F8284670BD0000325B0008F3
:103C10009800002010B5034940F2EE50FDF784F8FB
:103C200080B210BD7816002010B503490348008803
:103C3000FDF7DAF810BD000078160020A80000207B
:103C400010B50648007820F080000449087000F0A4
:103C500007F903A000F03CFE10BD0000CC000020DE
:103C60007463705F636C69656E742061626F7274F7
:103C70006564210D0A00000010B50548006800F1D8
:103C80001C040020A06003A000F022FE10BD000074
:103C9000B00000207463705F636C69656E742061AE
:103CA000636B6564210D0A0010B50648007820F0AA
:103CB00080000449087000F0D3F803A000F008FE6B
:103CC00010BD0000CC0000207463705F636C6965F8
:103CD0006E7420636C6F736564210D0A0000000030
:103CE00010B50B48006800F11C040A48007840F049
:103CF00080000849087008A000F0EAFD002020704C
:103D0000A0600BA060606068FCF7D1FCA06010BDF3
:103D1000B0000020CC0000207463705F636C6965A4
:103D20006E7420636F6E6E6563746564210D0A00A6
:103D3000414C49454E54454B2053544D333220425B
:103D40006F61726420436F6E6E65637465642053A7
:103D500075636365737366756C6C79210D0A000079
:103D600010B53948006800F11C043848007800F0AC
:103D7000200008B1FFF764FF3448007800F08000AD
:103D800008B100F093F83148007800F0100008B155
:103D9000FFF78AFF2D48007800F0400008B1FFF7D8
:103DA0009FFF2A48007800F0010008B1FFF764FF88
:103DB0002648007800F00200C8B12548007800F0DD
:103DC000400020BB23480088C72804DD002022498A
:103DD000096881F8C700204801682048FCF738FCD2
:103DE0001B48007840F04000194908700FE018485F
:103DF000007800F0200050B118486060FCF757FCD4
:103E0000A0601348007820F02000114908700F4886
:103E1000007800F0040098B90C48007800F0020027
:103E200070B90A48007800F0010048B907480078E6
:103E300000F0400020B90548007800F0080008B103
:103E400000F024F810BD0000B0000020AC000020FD
:103E5000CC000020A8000020A0000020982D002009
:103E600038B500BF4AF6C000ADF8000040F2173088
:103E7000ADF8020000BF4FF4AF60FFF76FFA0446E1
:103E80002146684600F034FC38BD000010B50648F5
:103E9000006800F11C04A068002803DDD4E90101DA
:103EA00001F072FD10BD0000B000002010B5054803
:103EB000007820F080000349087003A000F008FD9E
:103EC00010BD0000CC0000207463705F636C6965F6
:103ED0006E742074696D656F7574210D0A000000A1
:103EE00010B5104800688088B0F5A04F04D0A0F548
:103EF0003040043830B902E0FFF736FA03E000F052
:103F00009FF800E000BF00BF06480068C088A0F529
:103F1000F040053810B9FFF723FF00E000BF00BFF5
:103F200010BD0000B000002010B50548007820F05A
:103F300080000349087003A000F0CAFC10BD000017
:103F4000CD0000207463705F7365727665722061C6
:103F5000626F72746564210D0A00000010B5054897
:103F6000006800F11C040020A06003A000F0B0FC79
:103F700010BD0000B00000207463705F736572763E
:103F800065722061636B6564210D0A0010B50548F8
:103F9000007820F080000349087003A000F098FC2E
:103FA00010BD0000CD0000207463705F73657276F1
:103FB000657220636C6F736564210D0A0000000058
:103FC00010B50B48006800F11C040A48007840F066
:103FD00080000849087008A000F07AFC00202070DA
:103FE000A0600BA060606068FCF761FBA06010BD82
:103FF000B0000020CD0000207463705F736572769E
:10400000657220636F6E6E6563746564210D0A00CE
:10401000436F6E6E65637420746F20414C49454E4A
:1040200054454B2053544D333220426F617264200B
:104030005375636365737366756C6C79210D0A0043
:1040400010B53948006800F11C043848007800F0C9
:10405000200008B1FFF768FF3448007800F08000C6
:1040600008B100F07DF83148007800F0100008B188
:10407000FFF78CFF2D48007800F0400008B1FFF7F3
:104080009FFF2A48007800F0010008B1FFF766FFA3
:104090002648007800F00200C8B12548007800F0FA
:1040A000400020BB23480088C72804DD00202249A7
:1040B000096881F8C700204801682048FCF7C8FA61
:1040C0001B48007840F04000194908700FE018487C
:1040D000007800F0200050B118486060FCF7E7FA63
:1040E000A0601348007820F02000114908700F48A4
:1040F000007800F0040098B90C48007800F0020045
:1041000070B90A48007800F0010048B90748007803
:1041100000F0400020B90548007800F0080008B120
:1041200000F00EF810BD0000B0000020AC00002030
:10413000CD000020A8000020A0000020602E00205C
:1041400010B50648006800F11C04A068002803DDD3
:10415000D4E9010101F018FC10BD0000B0000020FE
:1041600010B50548007820F080000349087003A0CE
:1041700000F0AEFB10BD0000CD0000207463705F46
:104180007365727665722074696D656F7574210D43
:104190000A00000070B504460D46208D10B1AB2812
:1041A00027D112E00020A4F8AC001DE0B4F8AC0068
:1041B00000EB8000114901EBC000407E00F00F00D1
:1041C00068B100BFAB20208500BF22460C4904F136
:1041D0002800FFF77BFA08B9002070BD00BFB4F8D3
:1041E000AC00401CA4F8AC00B4F8AC002828DDDB1F
:1041F00000BF00BF002020850220EEE77C260020C3
:10420000CD2C000810B50446FEF714FC2168401AB6
:104210006168884201DB012010BD0020FCE7D0E985
:10422000001211440160704770B504460D46656088
:10423000FEF700FC206070BDC2780A44194BDA70AA
:10424000827802EB21229A7042785A7002781A70B2
:104250001A469278B2EB212F0ADA1A465278521C8B
:104260005A701A4652781AB91A461278521C1A70A5
:104270000C4AD278CBB29A4212DA0A4A9278521C8D
:10428000084B9A701A46927852B91A465278521CC4
:104290005A701A4652781AB91A461278521C1A7075
:1042A00070470000BC00002010B5044621460D48B0
:1042B00000680830FFF7C0FF0B480078094909681B
:1042C00008720948417807480068417206488178B9
:1042D0000448006881720448C17802480068C172CD
:1042E00010BD0000B0000020BC00002010B5354813
:1042F00000882A2803D200203249088010BD0020FF
:10430000304908803048808AB0F5807F03D0B0F50E
:10431000007F54D141E02C48C08C2C490988884248
:104320003AD12948008D29494988884234D1264903
:104330001631881D00F04AF94FF400702249888236
:104340000846D1F816200262498B818420490A6808
:10435000C0F81620898841831D490A68C0F80620E4
:104360008988418101460A6A0260898C8180808B3C
:104370001549C8840846C18B018514480088124934
:104380008883124841881048C1834FF4C1600E49A8
:1043900088812A200B49088011E00B48C08C0B490A
:1043A000098888420AD10848008D0849498888420E
:1043B00004D105491631881D00F008F900BF00BF7F
:1043C00000BF9BE7A8000020781600208C0000208A
:1043D0009800002010B55B48C08B5B490988884273
:1043E0000CD15848008C58494988884206D1554814
:1043F00056490A6802608988818091E05148C08BE3
:1044000053490988084053490988514A1288114084
:1044100088420BD14B48008C4D49498808404D4992
:1044200049884B4A52881140884208D000BF4A4808
:1044300000884A49088048484088488008E000BF12
:104440004048C08B454908803E48008C488000BFEA
:1044500000204349087016E04148007800EB400016
:10446000404901EB80043D4800882188884205D1FD
:104470003A4840886188884200D108E0384800788E
:10448000401C37490870364800780828E4DB00BF34
:104490003348007808283ED1FF2206212948FCF73E
:1044A000B5F928480021016281842F490A68C0F8C3
:1044B0000620898841812C490A68C0F8162089881D
:1044C000418300BF254800881E49C884234841888D
:1044D0001C48018500BF00BF1E4800881949888319
:1044E0001C4841881748C18300BF4FF480701549AC
:1044F0008882C88108200882062088740420C87435
:104500004FF4C160888101F13600184908602A2003
:104510001749088010BD0B486168016021898180BE
:10452000084811490A68C0F8062089884181082096
:10453000044988810E4800880E300D49088000BF6C
:10454000E8E70000781600202E5B0008285B0008D2
:10455000940000208C00002090000020C400002067
:10456000C8000020382D002098000020A000002066
:10457000A800002012490978491C114A1170002135
:10458000104A117017E00F49097801EB41010E4AFA
:1045900002EB810001884288114339B1817A084ACF
:1045A0001278511A782901DB002101600549097848
:1045B000491C044A1170034909780829E3DB704754
:1045C000CA000020C8000020382D002010B5024687
:1045D0000023424C23701FE0404B1B7803EB430346
:1045E0003F4C04EB830003888BB143887BB1138875
:1045F0000488A3420BD153884488A34207D10B6897
:1046000043608B880381374B1B78837210BD334B1B
:104610001B785B1C314C2370304B1B78082BDBDB89
:1046200000232E4C237010E02C4B1B7803EB43032C
:104630002B4C04EB8300038813B9438803B908E0CB
:10464000264B1B785B1C254C2370244B1B78082BB6
:10465000EADB00BF214B1B78082B34D10023224C0E
:104660002370224C23701D4C23701DE01B4B1B78C4
:1046700003EB43031A4C04EB8300837A194C247830
:10468000E31A194C2478A34209DD837A154C247867
:10469000E31A154C2370114B1B78144C23700F4BED
:1046A0001B785B1C0D4C23700C4B1B78082BDDDB3F
:1046B0000E4B1B78094C237023461B7803EB4303F6
:1046C000074C04EB8300136803600B6843608B881E
:1046D0000381044B1B78837200BF97E7C80000205A
:1046E000382D0020CA000020CB000020C900002087
:1046F00030B504460D4600BF3D480088401C3C498B
:10470000088008460088B0F5FA4F02DB4FF480506D
:10471000088000203749087015E03648007800EB23
:104720008000354901EBC002507E38B13048008826
:10473000FEF714FE9188884200D1DDE72D4800780D
:10474000401C2C4908702B4800782828E5DB002203
:1047500000202849087018E02648007800EB800007
:10476000254901EBC003587E08B91A4611E0587E6E
:10477000072805D11AB1987E917E884200DD1A463D
:104780001C480078401C1B4908701A4800782828EB
:10479000E2DB00BF0AB9002030BD02205076174886
:1047A0000078107315484178517381789173C178FE
:1047B000D17340F6CA70508290820120108200208E
:1047C000D07601209076032010760020907510207E
:1047D000D07507480088FEF7C1FD9080D58000BFE6
:1047E000208810806088508000BF1046D4E7000009
:1047F000BA000020C00000207C260020B600002067
:104800000020164908700AE000201549134A127862
:1048100021F8120011480078401C104908700F4818
:1048200000782828F0DB00200C4908700DE00020FB
:104830000A49097801EB81010A4A02EBC101487675
:1048400006480078401C054908700448007828286C
:10485000EDDB4FF48060044908807047C000002001
:10486000BC2C00207C260020BA00002010B51422A9
:1048700006490020FEF7BBF8044614B94FF6FF7056
:1048800010BD2046FEF76AFDFAE7000086160020FC
:1048900000210D4A117010E00C490B4A127831F8D2
:1048A000121029B90949084A127821F812007047F4
:1048B00005490978491C044A1170034909782829D7
:1048C000EADB00BFF3E70000C0000020BC2C0020A2
:1048D00010B50446214602A0FBF726FD10BD0000DE
:1048E000754950206C6F673A25730D0A000000006F
:1048F00010B53348007858B9012031490870322189
:104900003048FFF791FC4FF47A712F48FFF78CFC89
:10491000FFF780F92D49088008460088002824DD2B
:104920004FF40060FEF71AFD2949898988420BD1AE
:10493000012000F053F82548008800283FDDFFF7EC
:1049400049FDFFF771F93AE040F60600FEF706FD73
:104950001F498989884232D1FFF7C8FC1B4800886B
:1049600000282CDDFFF760F929E01648FFF74AFC24
:1049700028B31448FFF753FC002415E000BF04EBF4
:104980008400144901EBC00013490860022000F0C4
:1049900025F800BF0D480088002803DDFFF71AFD49
:1049A000FFF742F9601CC4B2282CE7DB0648FFF78A
:1049B00029FC20B10448FFF732FCFFF7DBFD10BDF6
:1049C000100000200000002008000020A8000020A7
:1049D000781600207C260020B000002070B5054627
:1049E000FA480468FA48FB490860FB490860032D4F
:1049F0000ED1607E00F00F00032807D1208A28B96D
:104A00000820F6490870FFF76BFAF8E300F0A9BF39
:104A1000022D73D1F248C078401CC0B2F049C87072
:104A200078B908468078401CC0B2887048B90846FA
:104A30004078401CC0B2487018B908460078401C45
:104A400008700020E7490880E7490880607E072851
:104A500002D0607E052808D1A07E401CA076A07EF2
:104A6000782860D1002060765DE0607E00285AD012
:104A7000208A00284CD0A17E481EA076002952D161
:104A8000E07E082808D0607E022802D0607E0128DF
:104A90000FD1E07E05280CD1002060768020CF4920
:104AA0000870FFF71DFA1421C948363880F82F1016
:104AB000FEE3E07E042801DD042000E0E07E032127
:104AC0008140A176E07E401CE076C848C08C401C46
:104AD00081B2C648C184607E00F00F00092822D24E
:104AE000DFE800F02105060D13211421150057E31E
:104AF0000021B748363880F82F1056E314E0042020
:104B0000B6490870FFF7ECF9DFE300BF00BFDDE353
:104B1000607E00F00F00032805D10820AF4908701F
:104B2000FFF7DEF971E771E7B0484088401CAF49F4
:104B30004880A7483638807B45280BD00846008837
:104B4000401C08800846C088401CC880A8A0FFF709
:104B5000BFFE5BE79E483638417C007C01EB0020BD
:104B6000A0490988884208DC99483638417C007C95
:104B700001EB00209B49088003E0A7A0FFF7A8FEF7
:104B800044E793483638007D00F03F0018B990485C
:104B90003638407D60B195480088401C93490880B4
:104BA00008468089401C8881A7A0FFF791FE2DE769
:104BB000AB480088AB490988884205D1A84840889D
:104BC000A8494988884213D081483638C08BA44907
:104BD0000988884206D17E483638008CA049498829
:104BE000884205D081480088401C804908800DE734
:104BF000FFF73CFE4FF6FF7188420CD07B480088DF
:104C0000401C7A4908800846C089401CC88196A08B
:104C1000FFF75EFEFAE66E483638C07D062800D102
:104C200062E06B483638C07D01280CD06F480088A0
:104C3000401C6E4908800846008A401C08828FA0EC
:104C4000FFF746FEE2E66948808A401C81B2674869
:104C500081825F48363890F8220008280ED06348D9
:104C6000408A401C614948820846008B401C81B242
:104C70005E48018388A0FFF72BFEC7E60021544859
:104C8000363880F82210808C4FF6F771884208DBA6
:104C90004F483638808C093081B24D48363881848F
:104CA00007E04B483638808C083081B248483638A7
:104CB000818400BF46483638418BC183818B018493
:104CC00000BF00BF664801884148363841836448C8
:104CD00041883F483638818300BF4448C08A401C21
:104CE00081B24248C182F4E34048808B401C81B2CB
:104CF0003E48818300F060FE4FF6FF7188420ED07F
:104D00003A48408B401C394948830846008C401C77
:104D100081B23648018466A0FFF7DAFD76E6694C79
:104D20001BE0607EC0B12A483638808CA18888425A
:104D300012D127483638408CE18888420CD124486B
:104D40003638408B2188884206D121483638808BFE
:104D50006188884200D144E228345B488442E0D92B
:104D60001B48363890F82F0000F03F00022800D092
:104D700022E017483638808C544908800020544976
:104D800008700EE053485249097830F811004F4935
:104D90000988884200D123E14D480078401C4C49E5
:104DA00008704B4800782828ECDB1048408D401CE8
:104DB00081B20E48418500BF0548363890F82F0073
:104DC00000F0040000B121E686E00000B000002001
:104DD000AE160020A0000020A4000020AC0000209F
:104DE000B6000020A8000020AA0000200C2D002002
:104DF00069703A20696E76616C69642076657273B9
:104E0000696F6E206F7220686561646572206C65E1
:104E10006E6774682E00000069703A207061636BE1
:104E200065742073686F72746572207468616E2097
:104E30007265706F7274656420696E2049502068D5
:104E400065616465722E000069703A206672616760
:104E50006D656E742064726F707065642E00000062
:104E60008C000020245B000869703A206261642095
:104E7000636865636B73756D2E00000069703A207E
:104E80006E65697468657220746370206E6F72203D
:104E900069636D702E00000069636D703A206E6F5B
:104EA000742069636D70206563686F2E00000000D8
:104EB0007463703A2062616420636865636B737524
:104EC0006D2E00007C260020942C0020C2000020C3
:104ED000C0000020BC2C0020FD48808C401C81B20A
:104EE000FB4881841421FB4880F82F102820FA49C0
:104EF00008805021F74880F82E1090F82900F749D3
:104F00000870F44890F82D1080F82910F3480178C3
:104F1000F04880F82D1090F82800F0490870ED480E
:104F200090F82C1080F82810EC480178E94880F8B7
:104F30002C1090F82700E9490870E64890F82B10EB
:104F400080F82710E5480178E24880F82B1090F8A7
:104F50002600E2490870DF4890F82A1080F82610F1
:104F6000DE480178DB4880F82A1090F82D00401CBC
:104F7000C1B2D84880F82D10B1B990F82C00401C6F
:104F8000C1B2D44880F82C1071B990F82B00401CA5
:104F9000C1B2D04880F82B1031B990F82A00401CDB
:104FA000C1B2CC4880F82A10CA48408CCC4908804D
:104FB000C848818C4184CA480188C648818400BFA2
:104FC000418BC183818B018400BF00BFC54801882C
:104FD000C0484183C3484188BE48818300BFF5E390
:104FE00000240020BD49087030E0BC48007800EB88
:104FF0008000BD4901EBC000407E30B9B748007861
:1050000000EB800001EBC00424E0B448007800EB22
:105010008000B54901EBC000407E072811D14CB19A
:10502000AE48007800EB800001EBC000807EA17EDE
:10503000884206DDA948007800EB8000AA4901EB10
:10504000C004A6480078401CA4490870A348007812
:105050002828CADB00BF4CB99D48008D401C81B296
:105060009B480185A1A0FFF733FCCFE4A84804606A
:105070000320A07620760020A0750420E075002093
:10508000E0769448808CA0809248408CE08000BFFD
:105090009048408B20808F48808B608000BF01202B
:1050A00060769C48007820739A48417861738178D3
:1050B000A173C178E17301202082864890F82910FD
:1050C000E17290F82810A17290F82710617290F8A0
:1050D000260020720120FFF7E7F87E4890F82E00A6
:1050E00000F0F00050285ADD00207C4908704AE0AA
:1050F0007A48007836307749085C87490870084656
:10510000007800B94AE084480078012805D1734846
:105110000078401C7149087035E07F48007802280B
:1051200020D16E48007837306A49085C042819D1CC
:105130006A4800783930095C684800783830654A38
:10514000105C41EA0020664908800846008840F665
:10515000CA71884201DD084601E06148008860822A
:10516000A0821BE05D48007837305A49085C00B9DE
:1051700014E05A48007837305649085C5749097896
:10518000084456490870534890F82E000521C1EB99
:10519000201052490978B1EB800FA9DB00BF00BF96
:1051A00010214C4880F82F1000BF4A4890F82F007B
:1051B00040F00201474880F82F10022180F8361095
:1051C000042180F837100F2180F83810CA2180F8A8
:1051D00039102C204049088060213E4880F82E106C
:1051E00037E34B48046000204C490870394890F878
:1051F0002F0000F0040060B10020607600E02FE294
:1052000047A0FFF765FB202044490870FEF768FEC1
:10521000A7E3304890F82E00001180002F49087055
:105220002D4800880978401A14382B490880607E80
:1052300000F00F00022806D1264890F82F0000F059
:105240003F00122822D024480088002805DC21488D
:1052500090F82F0000F00300C0B11E4890F826001F
:10526000217A884211D11B4890F82710607A814238
:105270000BD1184890F82810A07A814205D1154822
:1052800090F82910E07A814200D0D4E2114890F8D9
:105290002F0000F01000D0B1208AC0B1218A04F1A3
:1052A0000C00FEF7C9FF0B4890F82A00264900E0E1
:1052B000C6E2097888420AD1064890F82B002249B4
:1052C000497888427ED1034840E00BE26CE179E006
:1052D0000C2D002078160020A8000020C00000201F
:1052E000C20000208C0000207C2600207463703AED
:1052F00020666F756E64206E6F20756E75736564C1
:1053000020636F6E6E656374696F6E732E000000AC
:10531000B0000020B6000020C1000020AC0000203A
:105320007463703A20676F742072657365742C2003
:1053300061626F7274696E6720636F6E6E6563740D
:10534000696F6E2E00000000BC00002090F82C0059
:10535000FC498978884235D1FB4890F82D00F949FD
:10536000C97888422ED1F74800782073F5484178F3
:1053700061738178A173C178E173E07ED8B9217E31
:10538000A27E891A48B2A17DA0EBE10148B2A17DBD
:105390000144A175002801DA414248B2E17DA0EB49
:1053A000A10148B2E17D0144E175E17DA27D01EBFF
:1053B000E201217600BF0120E4490870207EA0763A
:1053C00000202082607E00F00F0009286BD2DFE809
:1053D00000F06A0525C0F4F3F2F1F000DB48007834
:1053E00000F00100C8B1032060764020D749087062
:1053F00000202082D6480088002808DD0846007872
:1054000040F002000870D2480088FEF74DFF0020EF
:10541000D0490880FEF764FD22E1A2E2CB48007883
:1054200000F00100F0B3C84890F82F0000F03F00F2
:10543000122837D1C44890F82E0000F0F000502810
:105440005EDD0020C44908704EE0C3480078363065
:10545000BD49085CC14908700846007800B94EE0B3
:10546000BE480078012805D1BB480078401CBA49E5
:10547000087039E0B9480078022823D1B64800788E
:105480003730B149085C04281CD1B3480078393062
:10549000095CB14800783830AB4A105C41EA002022
:1054A000AF4901E04BE0C4E108800846008840F6BF
:1054B000CA71884201DD084601E0A948008860827F
:1054C000A0821CE0A448007837309F49085C08B9E6
:1054D00015E03DE2A048007837309B49085C9E49C2
:1054E000097808449C490870974890F82E000521D7
:1054F000C1EB201098490978B1EB800FA5DB00BF04
:1055000003206076904890F8260020728E4890F82C
:105510002710617290F82810A17290F82910E1729A
:105520000120FEF7C1FE4220884908700020208239
:105530008749088087490880FEF7D2FC90E0202048
:1055400082490870FEF7CCFC00208649096848763D
:1055500032E47D4890F82F0000F0010070B3607EC7
:1055600000F0100050BB208A00B1FAE178490988A8
:10557000491C88B2FEF798FE7448007840F010008D
:105580007249087072480088002804DD08460078D7
:1055900040F002000870FEF7A3FC012020820820E2
:1055A00060760020E07600BF1121674880F82F1058
:1055B00046E1B9E032E132E10FE1D9E0FFE76248CC
:1055C00090F82F0000F02000B8B15F4890F8351037
:1055D00090F8340041EA00206349096808446249B0
:1055E0000860594890F8351090F8340041EA0020DE
:1055F00057490988081A56490880554800880028E4
:105600000DDD607E00F0100048B95048007840F091
:1056100002004E4908704E480088FEF745FE4A4891
:1056200090F8311090F8300001EB00204C490880D0
:10563000A08A0988884202DB4948008810B9A08AFC
:10564000474908804648008860824048007800F05A
:105650000300E8B300203F490880FEF741FC00BF8B
:105660003A48007800F0200040B100203949088015
:1056700060761421344880F82F10E1E03348007838
:1056800000F0100068B1002032490880012020821B
:10569000042060760020E07611212B4880F82F103E
:1056A000CEE02C480088002819DD2848007800F05A
:1056B000010008B100202082208A68B9608A25494B
:1056C0000988884202DA608A22490880214800E07D
:1056D00029E00088208202E0208A1E4908800020FC
:1056E000E07600BF214800681F490860194800881B
:1056F00000280BDD208A002808DD208A2830144984
:1057000008801821104880F82F109DE00F4800787D
:1057100000F0020038B128200D49088010210A4805
:1057200080F82F1090E01CE10848007800F001009C
:1057300030B100206076102004490870FEF7D0FBDD
:1057400077E00000BC00002078160020AC000020AC
:10575000A8000020AA000020C0000020C1000020F6
:10576000C2000020B0000020A0000020A400002003
:105770007F480088002803DD7D480088FEF794FDFF
:105780007C4890F82F0000F00100A8B17A4800781A
:1057900000F0010028B1072060760020A07620826A
:1057A00001E0062060760120FEF77EFD10207249A0
:1057B0000870FEF795FB3EE06F48007800F00100AE
:1057C00028B10520607600202082CAE083E0684886
:1057D0000088002800DD2EE0C3E06548008800282E
:1057E00003DD63480088FEF75FFD624890F82F00F4
:1057F00000F0010060B1072060760020A076012053
:10580000FEF752FD10205C490870FEF769FB12E0BC
:1058100057480088002800DD0DE0A2E00BE0564864
:10582000007800F0010018B1072060760020A07613
:1058300000BF00BF95E010214E4880F82F1000BF38
:1058400028204B49088000BF50214A4880F82E107C
:1058500000BF217A474880F82A10617A80F82B101F
:10586000A17A80F82C10E17A80F82D10217B80F845
:105870002610617B80F82710A17B80F82810E17B3F
:1058800080F829100621C175A1884184E1888184AE
:1058900000BF3A4801883748418338484188354835
:1058A000818300BF00BF2188C1836188018400BF5C
:1058B000607E00F0100030B100212E4880F83110D9
:1058C00080F8301006E00F212A4880F83010CA21F5
:1058D00080F8311000BF4021264881752448008897
:1058E00001122448017422480178224841740021A1
:1058F00080F8351080F83410418600F05DF8C04320
:1059000081B21C48418645201A49887300211948F4
:10591000C173417501751A480088401C18490880F8
:10592000084600880112134881741548017811480F
:10593000C17400210183FEF799FFC04381B20D4875
:1059400001831048C08B401C81B20E48C18300BF48
:105950000C488088401C0B4988800020064908704C
:1059600070BD0020024908800349087000BFF7E7B6
:10597000A800002078160020AC0000208C00002039
:10598000B40000200C2D002070B504460D46002DFB
:105990000CDD07490D8007480068844206D00846A0
:1059A0000288214603480068FAF7EBFE70BD00004C
:1059B000AA000020A400002010B5062000F002F884
:1059C00010BD000070B504460F48417C007C01EB1F
:1059D0000020143885B2281986B208220A491A31E3
:1059E0003046FDF704F806462A460749223130467C
:1059F000FCF7FDFF064616B94FF6FF7070BD304646
:105A0000FDF7ACFCFAE7000078160020000303065F
:105A100001040602050003051F1C1F1E1F1E1F1F79
:105A20001E1F1E1F000001000200010003000100F4
:105A30000200010004000100020001000300010057
:105A40000200010005000100020001000300010046
:105A50000200010004000100020001000300010037
:105A60000200010006000100020001000300010025
:105A70000200010004000100020001000300010017
:105A80000200010005000100020001000300010006
:105A900002000100040001000200010003000100F7
:105AA00002000100070001000200010003000100E4
:105AB00002000100040001000200010003000100D7
:105AC00002000100050001000200010003000100C6
:105AD00002000100040001000200010003000100B7
