:020000040800F2
:1000000010150020CD0100088504000849040008EF
:100010008104000829030008BB1300080000000049
:100020000000000000000000000000003D1100087A
:100030002D030008000000005B02000851120008B8
:10004000E7010008E7010008E7010008E7010008F0
:10005000E7010008E7010008E7010008E7010008E0
:10006000E7010008E7010008E7010008E7010008D0
:10007000E7010008E7010008E7010008E7010008C0
:10008000E7010008E7010008E7010008E7010008B0
:10009000E7010008E7010008E7010008E7010008A0
:1000A000E7010008E7010008E7010008E701000890
:1000B000E7010008E7010008E7010008E701000880
:1000C000E7010008E7010008E7010008E701000870
:1000D000E7010008CD120008E7010008E701000869
:1000E000E7010008E7010008E7010008E701000850
:1000F000E7010008E7010008E7010008E701000840
:10010000E7010008E7010008E7010008E70100082F
:10011000E7010008E7010008E7010008E70100081F
:10012000E7010008E7010008E7010008E70100080F
:1001300000F002F800F03AF80AA090E8000C8244BF
:100140008344AAF10107DA4501D100F02FF8AFF29C
:10015000090EBAE80F0013F0010F18BFFB1A43F0A5
:10016000010318475015000070150000103A24BF15
:1001700078C878C1FAD8520724BF30C830C144BF0C
:1001800004680C607047000000230024002500264E
:10019000103A28BF78C1FBD8520728BF30C148BFEA
:1001A0000B6070471FB51FBD10B510BD00F08DF876
:1001B0001146FFF7F7FF01F0C1F900F0ABF803B407
:1001C000FFF7F2FF03BC01F0FAF80000094880478E
:1001D00009480047FEE7FEE7FEE7FEE7FEE7FEE729
:1001E000FEE7FEE7FEE7FEE704480549054A064B41
:1001F000704700006D12000831010008100F002048
:10020000101500201011002010110020EFF31080B5
:1002100072B6704780F310887047204C204D2560DF
:100220004FF0000484F309881E4C4FF0010525703F
:100230001D4C4FF08055256062B6FEE730B41A4C75
:100240004FF08055256030BC704730B4164C4FF0ED
:100250008055256030BC704700BF72B6EFF309804F
:1002600028B1203880E8F00F10490968086000B50F
:100270000F4880475DF804EB0E480F490A7802707A
:100280000A480E490A680260106890E8F00F2030B2
:1002900080F309884EF0040E62B6704720ED00E04E
:1002A0000000FFFF4600002004ED00E04C000020AD
:1002B0000D0A00083B0000203C00002054000020F4
:1002C00070477047704770477047754600F028F8D0
:1002D000AE4605006946534620F00700854618B033
:1002E00020B5FFF781FFBDE820404FF000064FF03A
:1002F00000074FF000084FF0000B21F00701AC465B
:10030000ACE8C009ACE8C009ACE8C009ACE8C00979
:100310008D4670470446AFF300802046FFF74FFF3D
:1003200000487047B00E002000BFFEE770472DE97F
:10033000F04102460025002600200023002400276B
:1003400091F803C00CF00F0591F803C00CF0100CED
:10035000BCF1000F03D091F802C04CEA050591F8FA
:1003600000C0BCF1000F31D0146800202BE04FF02A
:10037000010C0CFA00F3B1F800C00CEA03069E422F
:1003800020D183004FF00F0C0CFA03F7BC4305FAA1
:1003900003FC4CEA040491F803C0BCF1280F06D119
:1003A0004FF0010C0CFA00FCC2F814C00AE091F8FE
:1003B00003C0BCF1480F05D14FF0010C0CFA00FC52
:1003C000C2F810C0401C0828D1D31460B1F800C096
:1003D000BCF1FF0F34DD546800202EE000F1080C62
:1003E0004FF0010808FA0CF3B1F800C00CEA03065C
:1003F0009E4221D183004FF00F0C0CFA03F7BC434F
:1004000005FA03FC4CEA040491F803C0BCF1280F80
:1004100005D100F1080C08FA0CF8C2F8148091F824
:1004200003C0BCF1480F07D100F1080C4FF00108E0
:1004300008FA0CF8C2F81080401C0828CED354608B
:10044000BDE8F0810161704700BFFEE708B50121FA
:10045000102000F063FE0320ADF8000010208DF89E
:10046000030003208DF8020069460448FFF75FFF90
:1004700003210248FFF7E6FF08BD0000001001401D
:1004800000BFFEE77047000002490143024A1160C5
:10049000704700000000FA050CED00E010B500F018
:1004A00013F800F0BFFB00F0E7FB00F007FC00F0E2
:1004B0008FFB00F061FB00F09BFC00F03FFC00F0C4
:1004C00065FC00F002F810BD7047704706480078E0
:1004D000012808D105480078FF2804D20348007895
:1004E000401C024908707047460000203900002077
:1004F00010B500241A480078012830D1FFF786FE95
:1005000004461848007820B116480078401E154966
:10051000087014480078F8B913480078E0B900F082
:10052000C9FC12481249097850F8210011490860A5
:100530000F4800781049097888420DD00D480068AE
:10054000806B401C0B49096888630C480068401C9C
:100550000A490860FFF779FE2046FFF75BFE10BDF1
:1005600046000020390000203A0000204809002001
:100570003C000020540000203B0000202000002010
:1005800010B500240B480078012811D1FFF73EFE7A
:1005900004460948007840B908480078FF2804D28A
:1005A00006480078401C054908702046FFF732FED7
:1005B00010BD000046000020390000203A00002055
:1005C00010B5002413480078012821D1FFF71EFE42
:1005D000044611480078C0B10F480078401E0E490B
:1005E00008700846007860B90C48007828B92046A1
:1005F000FFF710FE00F024FC0AE02046FFF70AFE99
:1006000006E02046FFF706FE02E02046FFF702FE66
:1006100010BD0000460000203A00002039000020F4
:1006200010B50B48007890B900F044FC09480078F8
:100630000949087009480749097850F82100084914
:1006400008600846006807490860FFF7E6FD10BD2E
:10065000460000203C0000203B000020480900200C
:10066000540000204C000020704700002DE9FE4F90
:1006700006460F4690461C464FF00009FFF7C6FDA0
:1006800081461F48007828B14846FFF7C3FD3C204B
:10069000BDE8FE8F1B4850F8240060BB01201949BB
:1006A00041F824004846FFF7B5FD0023424639468D
:1006B000304600F009F98246002000900190034680
:1006C000024651460290204600F00AFC054635B924
:1006D0000D48007801280CD100F0B2FB09E0FFF7CB
:1006E00095FD81460020074941F824004846FFF760
:1006F00091FD2846CCE74846FFF78CFD2820C7E748
:100700003900002048090020460000202DE9F04F64
:1007100085B081468A4693461C46DDE90F78129DD6
:1007200000200390FFF772FD03902348007830B15A
:100730000398FFF76FFD3C2005B0BDE8F08F1F4820
:1007400050F8240088BB01201C4941F8240003987C
:10075000FFF760FD2A464146384600F0D1FC2B46A3
:100760005A465146484600F0AFF804901198CDE93A
:10077000008002953A4620460E9B049900F0B0FB9B
:10078000064636B90E48007801280CD100F058FB17
:1007900009E0FFF73BFD03900020084941F82400E1
:1007A0000398FFF737FD3046C6E7FFE70398FFF7EA
:1007B00031FD2820C0E70000390000204809002052
:1007C00046000020704770472DE9F04106460F466D
:1007D00014464FF000081548007818B11220207018
:1007E000BDE8F081FFF712FD8046FF2E03D11048CF
:1007F000006890F832600F4850F826502DB94046F6
:10080000FFF708FD43202070EAE7012D05D140469F
:10081000FFF700FD43202070E2E7EF644046FFF75A
:10082000F9FC0020207000BFDAE70000390000204A
:100830004C00002048090020704700002DE9F047D7
:1008400007460D464FF0000A002028606860FFF759
:10085000DDFC8246FF2F03D11948006890F8327002
:10086000184850F827402CB95046FFF7D3FC4320D6
:10087000BDE8F087012C04D15046FFF7CBFC4320A4
:10088000F6E7207C00F0010020B95046FFF7C2FCDB
:100890004520EDE70026D4F80C90D4F808805046A7
:1008A000FFF7B8FC00E0761C58F8041B0029FAD0CA
:1008B000B0002860A9EB0600800068600020D7E740
:1008C0004C0000204809002070B5044610464FF047
:1008D00080750560051F28462C606FF00106051F16
:1008E00028462E604FF01236051F28462E604FF026
:1008F0000336051F28462E604FF00236051F284696
:100900002E607610051F28462E60051F2846296098
:100910004FF01136051F28462E604FF01036051F88
:1009200028462E604FF00936051F28462E604FF0EE
:100930000836051F28462E604FF00736051F28464B
:100940002E604FF00636051F28462E604FF0053604
:10095000051F28462E604FF00436051F28462E60DE
:1009600070BD00002DE9F04105464FF00008FFF78B
:100970004DFC8046FF2D05D12048006890F832508C
:10098000012608E01D48006890F83200A84201D115
:10099000012600E000261A4850F825402CB94046B0
:1009A000FFF738FC4820BDE8F081012C04D1404617
:1009B000FFF730FC4320F6E794F834701148C05D2F
:1009C00094F8351088430F49C8550846C05D30B9C2
:1009D00094F836100C48007888430B49087094F856
:1009E000300040F0080084F830004046FFF712FC69
:1009F000012E01D100F024FA0020D4E74C000020A1
:100A0000480900203E0000203D0000207047000003
:100A100070B5054600261748007800B170BD16482D
:100A2000007800B1FAE71DB3FFF7F0FB0646134864
:100A3000006890F834401248005D1049096891F848
:100A4000351088430E4908550846005D40B90B48EB
:100A5000006890F836100B48007888430949087000
:100A600006480068C5623046FFF7D4FB00F0E8F99D
:100A700000BFD3E7390000203A0000204C000020DE
:100A80003E0000203D00002070B5002600F072F806
:100A9000FFF7BCFB064631480068401C2F49086040
:100AA0003046FFF7B7FB2E480078012853D12D4878
:100AB000007820B1012804D0022809D103E00125E3
:100AC0000BE0002509E0012501202649087004E01B
:100AD000012500202349087000BF00BF05B970BD83
:100AE0002148046833E0FFF791FB0646E06A50B303
:100AF000E06A401EE062E06A28BB94F8300000F033
:100B0000370040B114F8300F00F0C8002070012009
:100B10006070303C02E0002084F8310094F830002E
:100B200000F0080078B93434A078104909780843F7
:100B30000E49087020780E49085C6178084314F863
:100B400034190B4A505464693046FFF763FB94F83C
:100B500032003F28C7D100BFC1E700006400002079
:100B6000460000205C000020580000203D000020CE
:100B70003E000020704700002DE9F041502111484F
:100B800000F02CF900250DE0681C86B20D4800EB42
:100B9000051400EB06170020207067600AA0E060D3
:100BA000681C85B2042DEFD3064800EB0514002025
:100BB0002070606004A0E060024804490860BDE85D
:100BC000F0810000F80400203F0000002800002011
:100BD00070B5C821114800F001F900230FE0581C3E
:100BE00085B203EB83000D4901EB800405EB850022
:100BF00001EB8006002020706660581C83B2092B30
:100C0000EDD303EB8300054901EB80040020207045
:100C1000606008460249086070BD00003004002092
:100C20002400002000200A4908600A4908700A4987
:100C300008700A4908700A4908700A4908600A4998
:100C400008600A4908600A4908600A490870704744
:100C500064000020390000203A00002047000020F6
:100C60004600002020000020480000203400002022
:100C7000300000203800002000210A4A11700020B6
:100C800004E00021084A1154411CC8B20828F8D3D6
:100C90000021064A1170064A1170064A1160064A80
:100CA000116070473D0000203E0000203B00002006
:100CB0003C000020540000204C00002070B54FF490
:100CC0007C71194800F08AF84FF48071174800F0E1
:100CD00085F8002413E0601CC5B2C4EBC40000EB2F
:100CE0004000114901EB8003C5EBC50000EB40005B
:100CF00001EB80065E610EA0D864601CC4B20B2CB0
:100D0000E9D3C4EBC40000EB4000074901EB8003CA
:100D10000020586106A0D8640020064908600248F7
:100D20000549086070BD0000480A002048090020FD
:100D30003F000000580000205000002000B587B0A0
:100D40000320002180220A4BCDE90132CDE90310B6
:100D50004FF6FF703F23074A00900748FFF7D6FC85
:100D600006AA06A13F20FFF72FFD07B000BD000037
:100D700048070020440900201510000875432F4F34
:100D8000532D49492049646C6500000000B587B0C7
:100D90000320002180220A4BCDE90132CDE9031066
:100DA0004FF6FE703E23074A00900748FFF7AEFC5F
:100DB00006AA06A13E20FFF707FD07B000BD000010
:100DC00048050020440700203D10000875432F4FC0
:100DD000532D4949205374617400000004E000223F
:100DE00000F8012B4A1E91B20029F8D1704700008B
:100DF0002DE9F04178211048FFF7F0FF00240DE0C5
:100E0000601C86B204EB44000B4901EBC00506EB05
:100E1000460001EBC0072F60601C84B2042CEFD3A6
:100E200004EB4400044901EBC0050020286008469B
:100E300002490860BDE8F081380E00206000002003
:100E400010B50024FFF7E2F9044613480078F8B91A
:100E500012480078E0B900F02DF8114811490978DE
:100E600050F82100104908600E4800780F490978B1
:100E700088420DD00C480068806B401C0A49096804
:100E800088630B480068401C09490860FFF7D6F9E1
:100E90002046FFF7BFF910BD390000203A000020BE
:100EA000480900203C000020540000203B000020A6
:100EB000200000200649074A1278885C0649095C30
:100EC000034A515C01EBC001044A117070470000F5
:100ED000B41500083D0000203E0000203C0000202A
:100EE0002DE9F84F05460F4690469946DDE90AABD5
:100EF00000200090FFF78AF900903F480468002C1A
:100F000074D0183454F8040C3B4908600098FFF77B
:100F100081F944F8187CA57600202076607660611F
:100F200044F814BC44F80CAC44F8108C0C9824F829
:100F3000080C24F8069C0020E077E810207705F0E4
:100F40000700E076217F01208840A077E17E012024
:100F50008840607700206060E060A0602062A0624E
:100F60006062E062206325A06063183C002606E012
:100F7000002104F1500040F82610701CC6B2002E6B
:100F8000F6D02046FFF770FB2046FFF71BFCFFF76B
:100F90003DF900901A4840F825401A480068606101
:100FA0000020A0611748006810B1164800688461ED
:100FB000144804603434A07813490978084312496E
:100FC000087020781149085C6178084314F83419D6
:100FD0000E4A50540E480078401C0D490870009885
:100FE000FFF718F90020BDE8F88FFFE70098FFF73A
:100FF00011F94220F7E70000500000203F000000F8
:1010000048090020580000203D0000203E0000203C
:1010100047000020002400BF00BFFFF7F7F8044698
:1010200005480068401C044908602046FFF7F2F8B4
:10103000FFF7C9FBF1E7000048000020002400BFD3
:1010400002E02820FFF7E4FC194800780028F8D0D7
:10105000184800686421B0FBF1F0164908600846A2
:10106000006828B9002014490870FF20FFF77AFCB7
:1010700000BFFFF7CBF8044610480068104908602D
:1010800000200E4908602046FFF7C4F80C480068AD
:1010900008490968B0FBF1F0C0F164000649087026
:1010A000FFF7CAFB00F00EF81420FFF7B1FCE0E7F1
:1010B00038000020300000202C00002048000020D4
:1010C000340000207CB5002514E069462846FFF76F
:1010D000B5FB064666B9094850F8254044B1012CD5
:1010E00006D0D4E9020100EB810060640198A0649D
:1010F000681CC5B23F2DE8D97CBD0000480900201E
:1011000002F0010343B102F002032BB102E0491ED9
:10111000002308C00029FAD17047000029B1064A0F
:1011200092690243044B9A6104E0034A9269824344
:10113000014B9A617047000000100240704710B5E3
:1011400000F002F810BD00000CB5002001900090E6
:101150003348006840F480303149086000BF3048AF
:10116000006800F4003000900198401C0190009845
:1011700018B90198B0F5A06FF1D12948006800F4C2
:10118000003010B10120009001E000200090009894
:10119000012843D12348006840F01000214908602D
:1011A0000846006820F0030008600846006840F028
:1011B000020008601A4840681949486008464068BB
:1011C00048600846406840F48060486008464068CF
:1011D00020F47C1048600846406840F4E8104860FD
:1011E0000846006840F08070086000BF0C48006846
:1011F00000F000700028F9D00948406820F0030092
:10120000074948600846406840F00200486000BF57
:101210000348406800F00C000828F9D10CBD00001C
:101220000010024000200240042808D14FF0E021C5
:10123000096941F004014FF0E022116107E04FF02D
:10124000E021096921F004014FF0E02211617047AB
:1012500010B505480078012805D1FFF737F9FFF7E9
:1012600013FCFFF745F910BD4600002010B51348E8
:10127000006840F0010011490860084640681049C4
:1012800008400E494860084600680E4908400B496E
:1012900008600846006820F480200860084640681E
:1012A00020F4FE0048604FF41F008860FFF747FFFE
:1012B0004FF000600449086010BD000000100240BB
:1012C0000000FFF8FFFFF6FE08ED00E010B5FFF7A5
:1012D000FDF840F225511E4800F040F810B31C48BC
:1012E00000F066F8C4B21B48008800F40040C8B99A
:1012F0001848008800F4804060B10A2C03D0002018
:101300001449088020E01348008840F40040114947
:10131000088019E00D2C06D10E48008840F480406A
:101320000C49088010E00B480088C0F30D000A4902
:101330000C5408480088401C06490880084600886C
:10134000C72801DD00200880FFF7D2F810BD00009B
:10135000003801401C0000206803002070B50246E0
:10136000002400230025002040F66A16B14200D177
:1013700000BFC1F3421501F01F03012606FA03F373
:10138000012D02D19689334006E0022D02D1168A42
:10139000334001E0968A33400C12012606FA04F429
:1013A0001688344013B10CB1012000E0002070BD5C
:1013B00001468888C0F30800704700BFFEE7014679
:1013C00000BF704710B56FF00400FFF72DFF104805
:1013D00000681049B0FBF1F00F4908700C48006834
:1013E0000C49B0FBF1F441F28830444305200B492D
:1013F00008804FF0E020006940F002004FF0E0214B
:10140000086108464461006940F00100086110BDB0
:101410000000002000127A001400002016000020B6
:1014200070B504460F480078A0B10F48007888B91D
:101430000E480088844206DB0C48008894FBF0F5D7
:10144000284600F01DF80948008894FBF0F100FBE5
:10145000114084B24FF47A7104FB01F000F016F8E9
:1014600070BD00004600002039000020160000205A
:1014700010B5FFF785F810BD10B5FFF7A1F810BD46
:1014800010B504462046FFF7C3FA10BD2DE9F0471A
:10149000074600264FF0E020D0F81490114800785D
:1014A00007FB00F800BFFFF7E3FF4FF0E02085697E
:1014B00011E04FF0E0208469AC420CD0AC4202D283
:1014C000281B064403E0A9EB0400284406442546F3
:1014D000464500D300E0ECE700BFFFF7CDFFBDE8D5
:1014E000F0870000140000200DE00020064908608D
:1014F0005020FFF795FF01200449C1F880014FF407
:101500006670FFF78DFFF0E7800122420000224263
:101510000EE00020074908604FF49670FFF780FF47
:1015200001200549C1F884014FF49670FFF778FF58
:10153000EFE70000840122420000224210B54FF480
:10154000A060FEF7A1FFFFF73DFFFEF77FFFFEF76C
:10155000A5FF0A23044A00210448FFF787F8FFF794
:101560005FF8002010BD0000640100207115000824
:1015700070B50446002500BFFEF748FE0546072368
:10158000084A00210848FFF771F80623074A00219E
:101590000748FFF76BF80A20FFF7E4F92846FEF743
:1015A00039FE70BD64020020E914000864030020C5
:1015B00011150008000001000200010003000100F5
:1015C000020001000400010002000100030001000C
:1015D00002000100050001000200010003000100FB
:1015E00002000100040001000200010003000100EC
:1015F00002000100060001000200010003000100DA
:1016000002000100040001000200010003000100CB
:1016100002000100050001000200010003000100BA
:1016200002000100040001000200010003000100AB
:101630000200010007000100020001000300010098
:10164000020001000400010002000100030001008B
:10165000020001000500010002000100030001007A
:10166000020001000400010002000100030001006B
:101670000200010006000100020001000300010059
:10168000020001000400010002000100030001004B
:10169000020001000500010002000100030001003A
:1016A000020001000400010002000100030001002B
:1016B00002000100D41600080000002068000000AD
:1016C0006C0100083C17000868000020A814000006
:1016D0008801000800A24A04000000000000000089
:1016E00001020304060708090000000000000000D2
:1016F00000000000000000000000000000000000EA
:1017000000000000000000000000000000000000D9
:1017100000000000000000000000000000000000C9
:1017200000000000000000000000000000000000B9
:0C173000000000000000000000000000AD
:04000005080001CD21
:00000001FF
